:100000000C94B5110C94D4110C94D4110C94D411FB
:100010000C94D4110C94D4110C94D4110C94D411CC
:100020000C94D4110C94D4110C94D4110C94D411BC
:100030000C94D4110C94D4110C94D4110C94D411AC
:100040000C94D4110C94D4110C94D4110C94D4119C
:100050000C94D4110C94D4110C94D4110C94D4118C
:100060000C94D4110C94D4110C94D4110C94D4117C
:100070000C94D4110C94D4110C94D4110C94D4116C
:100080000C94D4110C94D4110C94D4110C94D4115C
:100090000C94D4110C94D4110C94D4110C94D4114C
:1000A0000C94D4110C94D4110C94D4110C94D4113C
:1000B0000C94D4110C94D4110C94D4110C94D4112C
:1000C0000C94D4110C94D4110C94D4110C94D4111C
:1000D0000C94D4110C94D4110C94D4110C94D4110C
:1000E0000C94D4110C94D41107634236B79BD8A753
:1000F0001A39685618AEBAAB558C1D3CB7CC57634D
:10010000BD6DEDFD753EF6177231BF000000803FFA
:1001100008000000BE922449123EABAAAA2ABECD16
:10012000CCCC4C3E00000080BEABAAAAAA3E000088
:100130000000BF000000803F000000000008417880
:10014000D3BB4387D1133D190E3CC3BD4282AD2BB7
:100150003E68EC8276BED98FE1A93E4C80EFFFBEAF
:1001600001C4FF7F3F00000000007FFFFFC0800050
:1001700000208006002080060020800600388006CF
:1001800000248006002480060024800600248006C7
:1001900000388000002080060020800600208000BB
:1001A00000207FFFFFC000000000000000000000F2
:1001B000000000000000000000000000000000003F
:1001C0000000000000000001010101010100000029
:1001D000000000000000000000000000010101011B
:1001E0000101010101010101000000000000000007
:1001F00000000001010101010101010101010101F2
:1002000001000000000000000000010101010101E7
:1002100001010101010101010101000000000000D4
:1002200000000101010101010000000001010101C4
:1002300001010000000000000001010101010000B7
:1002400000000000000001010101010000000000A9
:100250000001010101010000000000000000010197
:100260000101010000000000010101010100000086
:100270000000000000000001010101010000000079
:100280000101010101000000000000000000000168
:100290000101010100000000010101010100000055
:1002A0000000000000000001010101010000000049
:1002B000010101010000000000000000000000003A
:1002C0000101010100000001010101010000000025
:1002D0000000000000000000010101010100000118
:1002E000010101010000000000000000000000000A
:1002F00001010101010000010101010100000000F4
:1003000000000000000000000101010101000001E7
:1003100001010101000000000000000000000000D9
:1003200001010101010000010101010100000000C3
:1003300000000000000000000101010101000001B7
:1003400001010101000000000000000000000000A9
:100350000101010101000001010101010000000093
:100360000000000000000000010101010100000187
:100370000101010100000000000000000000000079
:100380000101010101000001010101010000000063
:100390000000000000000000010101010100000157
:1003A0000101010100000000000000000000000049
:1003B0000101010101000001010101010000000033
:1003C0000000000000000000010101010100000127
:1003D0000101010100000000000000000000000019
:1003E0000101010101000001010101010000000003
:1003F00000000000000000000101010101000001F7
:1004000001010101000000000000000000000000E8
:1004100001010101010000000101010100000000D3
:1004200000000000000000000101010100000000C8
:1004300001010101010000000000000000000001B6
:1004400001010101000000000101010101000000A3
:100450000000000000000001010101010000000097
:100460000101010101000000000000000000000186
:100470000101010100000000000101010101000073
:100480000000000000000101010101000000000067
:100490000001010101010000000000000000010155
:1004A0000101010000000000000001010101010143
:1004B0000000000001010101010100000000000036
:1004C000000001010101010101010101010101011E
:1004D0000101000000000000000000010101010115
:1004E0000101010101010101010000000000000003
:1004F00000000000010101010101010101010101F0
:1005000000000000000000000000000000000000EB
:1005100000000000000000000000000000000000DB
:1005200000000000000000000101010100000000C7
:1005300000000000000000000000000000000000BB
:1005400001010101000000000000000000000000A7
:100550000000000000000001010101010000000096
:10056000000000000000000000000000000000018A
:100570000101010100000000000000000000000077
:100580000000000000010101010101010000000064
:100590000000000000000000000101010101010154
:1005A0000101010100000000000000000000000047
:1005B0000001010101010101010101010000000030
:1005C0000000000000000000000101010101010124
:1005D0000101010100000000000000000000000017
:1005E0000000000000000001010101010000000006
:1005F00000000000000000000000000000000001FA
:1006000001010101000000000000000000000000E6
:1006100000000000000000010101010100000000D5
:1006200000000000000000000000000000000001C9
:1006300001010101000000000000000000000000B6
:1006400000000000000000010101010100000000A5
:100650000000000000000000000000000000000199
:100660000101010100000000000000000000000086
:100670000000000000000001010101010000000075
:100680000000000000000000000000000000000169
:100690000101010100000000000000000000000056
:1006A0000000000000000001010101010000000045
:1006B0000000000000000000000000000000000139
:1006C0000101010100000000000000000000000026
:1006D0000000000000000001010101010000000015
:1006E0000000000000000000000000000000000109
:1006F00001010101000000000000000000000000F6
:1007000000000000000000010101010100000000E4
:1007100000000000000000000000000000000001D8
:1007200001010101000000000000000000000000C5
:1007300000000000000000010101010100000000B4
:1007400000000000000000000000000000000001A8
:100750000101010100000000000000000000000095
:100760000000000000000001010101010000000084
:100770000000000000000000000000000000000178
:100780000101010100000000000000000000000065
:100790000000000000000001010101010000000054
:1007A0000000000000000000000000000000000148
:1007B0000101010100000000000000000000000035
:1007C0000000000000000001010101010000000024
:1007D0000000000000000000000000000000000118
:1007E0000101010100000000000000000000000005
:1007F00000000000000000010101010100000000F4
:1008000000000000000000000001010101010101E1
:1008100001010101010101010101000000000000CE
:1008200000010101010101010101010101010101B9
:1008300001010000000000000001010101010101AF
:10084000010101010101010101010000000000009E
:100850000001010101010101010101010101010189
:100860000101000000000000000000000000010184
:100870000101010101010000000000000000000072
:10088000000001010101010101010101010101015A
:100890000000000000000000000101010101010151
:1008A000010101010101010101000000000000003F
:1008B0000001010101010101010101010101010129
:1008C0000101000000000000000101010101000021
:1008D0000000000001010101010101000000000011
:1008E0000001010100000000000000000001010102
:1008F00001010100000000000001000000000000F4
:1009000000000000000001010101010100000000E1
:1009100000000000000000000000000000000001D6
:1009200001010101000000000000000000000000C3
:1009300000000000000000010101010100000000B2
:1009400000000000000000000000000000000001A6
:100950000101010100000000000000000000000093
:100960000000000000000001010101010000000082
:100970000000000000000000000000000000000176
:100980000101010100000000000000000000000063
:100990000000000000000001010101010000000052
:1009A0000000000000000000000000000000010145
:1009B0000101010100000000000000000000000033
:1009C0000000000000000101010101000000000022
:1009D0000000000000000000000000000000010115
:1009E0000101010000000000000000000000000004
:1009F00000000000000101010101000000000000F2
:100A000000000000000000000000000001010101E2
:100A100001010000000000000000000000000000D4
:100A200000000000010101010100000000000000C1
:100A300000000000000000000000000101010101B1
:100A400000000000000000000000000000000000A6
:100A50000000010101010101000000000000000090
:100A60000000000000000000000101010101010080
:100A70000000000000000000000000000000000076
:100A80000101010101010000000000000000000060
:100A90000000000000000001010101010100000050
:100AA0000000000000000000000000000000000145
:100AB0000101010100000000000000000000000032
:100AC0000000000000000101010101000000000021
:100AD0000000000000000000000000000001010113
:100AE0000101000000000000000000000000000004
:100AF00000000000010101010100000000000000F1
:100B000000000000000000000000000101010101E0
:100B100000000000000000000000000000000000D5
:100B200000000101010101000000000000000000C0
:100B300000000000000000000001010101010000B0
:100B400000000000000000000000000000000000A5
:100B50000101010101000000000000000000000090
:100B6000000000000000000001010101010101017D
:100B70000101010101010101010101010100000068
:100B80000101010101010101010101010101010155
:100B90000101010101000000010101010101010148
:100BA0000101010101010101010101010100000038
:100BB0000101010101010101010101010101010125
:100BC000010101010100000000000000000101011D
:100BD0000101010101000000000000000000000010
:100BE00000010101010101010101010101010100F7
:100BF00000000000000000000101010101010101ED
:100C000001010101010101010100000000000000DB
:100C100001010101010101010101010101010101C4
:100C200001000000000000000101010101000000BE
:100C300000000001010101010101000000000000AD
:100C4000010101000000000000000000000101019E
:100C50000101010000000000010000000000000090
:100C6000000000000001010101010100000000007E
:100C70000000000000000000000000000000010172
:100C80000101010000000000000000000000000061
:100C9000000000000000010101010100000000004F
:100CA0000000000000000000000000000000010142
:100CB0000101010000000000000000000000000031
:100CC000000000000000010101010100000000001F
:100CD0000000000000000000000000000000010112
:100CE0000101000000000000000000000000000002
:100CF00000000000000101010101000000000000EF
:100D000000000000000000000000000001010101DF
:100D100001000000000000000000000000000000D2
:100D200000000101010101010100000000000000BC
:100D300000000000000001010101010101010100AA
:100D400000000000000000000000000000000101A1
:100D5000010101010100000000000000000000008E
:100D6000000000000000010101010101010101007A
:100D70000000000000000000000000000000010171
:100D8000010101010101010101000000000000005A
:100D9000000000000000000000000000010101014F
:100DA0000101000000000000000000000000000041
:100DB000000000000001010101010100000000002D
:100DC0000000000000000000000000000000010121
:100DD0000101010000000000000000000000000010
:100DE00000000000000000010101010100000000FE
:100DF00000000000000000000000000000000001F2
:100E000001010101000000000000000000000000DE
:100E100000000000000000010101010100000000CD
:100E200000000000000000000000000000000001C1
:100E300001010101000000000000000000000000AE
:100E4000000000000000000101010101000000009D
:100E50000000000000000000000000000000000191
:100E6000010101010000000000000000000000007E
:100E7000000000000000000101010101000000006D
:100E80000000000000000000000000000000010160
:100E9000010101000000000100000000000000004E
:100EA000000000000000010101010100000000013C
:100EB000010100000000000000000000000101012D
:100EC0000101010000000001010101010100000019
:100ED000000000010101010101010000000000010A
:100EE00001010101010101010101010101010101F2
:100EF00001000000000000010101010101010101E8
:100F000001010101010101010000000000000000D9
:100F100001010101010101010101010101010100C2
:100F200000000000000000000000000000000000C1
:100F300000000000000000000000000000000000B1
:100F4000000000000000000000000000000101019E
:100F5000010100000000000000000000000000008F
:100F6000000000000101010101010000000000007B
:100F7000000000000000000000000001010101016C
:100F8000010100000000000000000000000000005F
:100F90000000010101010101010100000000000049
:100FA000000000000000000000010101010101013A
:100FB000010100000000000000000000000000002F
:100FC0000001010101010101010100000000000018
:100FD0000000000000000000010101010101010109
:100FE00001010000000000000000000000000001FE
:100FF00001010101000101010101000000000000E8
:1010000000000000000001010101010000010101D8
:1010100001010000000000000000000000010101CB
:1010200001010000000101010101000000000000B9
:1010300000000000010101010100000000010101A8
:101040000101000000000000000000010101010199
:10105000000000000001010101010000000000008B
:101060000000000101010100000000000001010179
:101070000101000000000000000001010101010069
:10108000000000000001010101010000000000005B
:101090000001010101010000000000000001010148
:1010A0000101000000000000010101010100000039
:1010B000000000000001010101010000000000012A
:1010C0000101010100000000000000000001010119
:1010D0000101000000000101010101000000000009
:1010E00000000000000101010101000000000101F9
:1010F00001010000000000000000000000010101EB
:1011000001010000000001010101010101010101D3
:1011100001010101010101010101010101010101BF
:1011200001010101010101010101010101010101AF
:10113000010101010101010101010101010101019F
:10114000010101010101010101010101010101018F
:10115000010101010101010101010101010101017F
:101160000101010101010000000000000000000079
:10117000000000000001010101010000000000006A
:10118000000000000000000000000000000101015C
:10119000010100000000000000000000000000004D
:1011A000000000000001010101010000000000003A
:1011B000000000000000000000000000000101012C
:1011C000010100000000000000000000000000001D
:1011D000000000000001010101010000000000000A
:1011E00000000000000000000000000000010101FC
:1011F00001010000000000000000000000000000ED
:1012000000000000000101010101000000000000D9
:1012100000000000000000000000000000010101CB
:1012200001010000000000000000000000000000BC
:1012300000000000000101010101000000000000A9
:10124000000000000000000000000000000101019B
:10125000010100000000000000000000000000008C
:101260000000000000010101010100000000000079
:10127000000000000000000000000000000101016B
:101280000101000000000000000101010101010155
:101290000101010101010101010101010100000041
:1012A000000101010101010101010101010101012F
:1012B0000101010101000000000101010101010122
:1012C0000101010101010101010101010100000011
:1012D00000010101010101010101010101010101FF
:1012E00001010101010000000001010101010000F4
:1012F00000000000000000000000000000000000EE
:1013000000010101010100000000000000000000D8
:1013100000000000000000000001010101010000C8
:1013200000000000000000000000000000000000BD
:1013300000010101010100000000000000000000A8
:101340000000000000000000000101010101000098
:10135000000000000000000000000000000000008D
:101360000001010101010000000000000000000078
:101370000000000000000000000101010101000068
:10138000000000000000000000000000000000005D
:101390000001010101010000000000000000000048
:1013A0000000000000000000000101010101000038
:1013B000000000000000000000000000000000002D
:1013C0000001010101010101010101010101000010
:1013D0000000000000000000000101010101010106
:1013E00001010101010101010000000000000000F5
:1013F00000010101010101010101010101010101DE
:1014000001010000000000000001010101010101D3
:1014100001010101010101010101010000000000C1
:1014200000010100000000000000000001010101B6
:1014300001010100000000000000000000000000A9
:101440000000000000000101010101010000000096
:10145000000000000000000000000000000000018B
:101460000101010100000000000000000000000078
:101470000000000000000001010101010100000066
:10148000000000000000000000000000000000005C
:101490000101010101000000000000000000000047
:1014A0000000000000000000010101010100000037
:1014B000000000000000000000000000000000002C
:1014C0000101010101000000000000000000000017
:1014D0000000000000000000010101010100000007
:1014E00000000000000000000000000000000000FC
:1014F00001010101010000000000000000000000E7
:1015000000000000000000000101010101000000D6
:1015100000000000000000000000000000000001CA
:1015200001010101010000000000000000000000B6
:1015300000000000000000010101010100000000A6
:101540000100000000000000000000000000010198
:101550000101010100000000010101000000000084
:101560000000000000000101010101000000000076
:101570000101010101010000000000000101010161
:101580000101010000000000010101010101010150
:101590000101010101010101010100000000000041
:1015A000010101010101010101010101010101012B
:1015B0000100000000000000000101010101010123
:1015C0000101010101010100000000000000000014
:1015D0000000000000010101010101010100000003
:1015E00000000000000000000000000000000000FB
:1015F00000000001010101010101010000000000E3
:1016000000000000000000000101010101010101D2
:1016100001010100000000000000000000000101C5
:1016200001010101010101010101010000000000AF
:10163000000000000001010101010101010101019F
:101640000101010000000000000000000101010193
:101650000101010000000000000000000000000087
:101660000000000101010101010101000000000072
:101670000000000000000000000001010101010164
:101680000100000000000000000000000000000059
:101690000000010101010101000000000000000044
:1016A0000000000000000000000101010101010034
:1016B000000000000000000000000000000000002A
:1016C0000001010101010100000000000000000014
:1016D0000000000000000000010101010101000004
:1016E00000000000000000000000000000000000FA
:1016F00001010101010100000000000000000000E4
:1017000000000000000000000101010101010000D3
:1017100000000000000000000000000000000000C9
:1017200001010101010000000000000000000000B4
:1017300000000000000000010101010100000000A4
:101740000101010101010100000000000000000191
:10175000010101010000010101010101010101017B
:10176000010000000000000101010101010101016F
:10177000010101010101010101010100000000015D
:101780000101010101010101010101010101010149
:10179000010101010000000101010101010101003D
:1017A0000000000000000101010101010000000132
:1017B0000101010101000000000000000000000123
:1017C000010101010100000101010101000000000F
:1017D0000000000000000000010101010100000103
:1017E00001010101000000000000000000000000F5
:1017F00001010101010100010101010100000000DE
:1018000000000000000000000001010101010001D2
:1018100001010101000000000000000000000000C4
:1018200000010101010100010101010100000000AE
:1018300000000000000000000001010101010001A2
:101840000101010100000000000000000000000094
:10185000000101010101000001010101000000007F
:101860000000000000000000000101010101000073
:101870000101010101000000000000000000000063
:10188000000101010101000001010101010000004E
:101890000000000000000000000101010101000043
:1018A0000101010101000000000000000000000033
:1018B000010101010100000000010101010100001E
:1018C0000000000000000000010101010100000013
:1018D0000001010101010100000000000000000101
:1018E00001010101000000000000010101010101EE
:1018F00000000000000101010101010100000000E1
:1019000000000001010101010101010101010101CA
:1019100001010100000000000000000001010101C0
:1019200001010101010101010101000000000000AD
:10193000000000000001010101010101010101019C
:101940000000000000000000000000000000000097
:101950000000000000000000000000000000000186
:101960000101010101010101010101010101010167
:101970000101010101000001010101010101010159
:101980000101010101010101010101010100000149
:101990000101010101010101010101010101010137
:1019A0000101010101000001010101010101010129
:1019B000010101010101010101010101010000001A
:1019C0000000000000000000000000000000000017
:1019D0000101010101000000000000000000000002
:1019E00000000000000000010101010101000000F1
:1019F00000000000000000000000000000000001E6
:101A000001010101000000000000000000000000D2
:101A100000000000000001010101010100000000C0
:101A200000000000000000000000000000000101B4
:101A300001010100000000000000000000000000A3
:101A40000000000000010101010101000000000090
:101A50000000000000000000000000000001010183
:101A60000101000000000000000000000000000074
:101A70000000000001010101010100000000000060
:101A80000000000000000000000000000101010152
:101A90000100000000000000000000000000000045
:101AA0000000000101010101010000000000000030
:101AB0000000000000000000000000010101010121
:101AC0000000000000000000000000000000000016
:101AD0000000010101010101000000000000000000
:101AE00000000000000000000000010101010100F1
:101AF00000000000000000000000000000000000E6
:101B000000010101010101000000000000000000CF
:101B100000000000000000000001010101010100BF
:101B200000000000000000000000000000000000B5
:101B300000010101010100000000000000000000A0
:101B4000000000000000000001010101010100008F
:101B50000000000000000000000000000000000085
:101B60000101010101000000000000000000000070
:101B7000000000000000000101010101010000005F
:101B80000000000000000000000000000000000154
:101B90000101010100000000000000000000000041
:101BA000000000000000010101010101000000002F
:101BB0000000000000000000000000000000010123
:101BC0000101010000000000000000000000000012
:101BD00000000000000101010101010000000000FF
:101BE00000000000000000000000000000010101F2
:101BF00001010000000000000000000000000000E3
:101C000000000000010101010101000000000000CE
:101C100000000000000000000000000001010101C0
:101C200001000000000000000000000000000000B3
:101C3000000000010101010101000000000000009E
:101C4000000000000000000000000001010101018F
:101C50000000000000000000000000000000000084
:101C6000000001010101010100000000000000006E
:101C7000000000000000000000000101010101005F
:101C80000000000000000000000000000000000054
:101C9000000101010101010000000000000000003E
:101CA0000000000000000000000000000000000133
:101CB000010101010101000000000000000000001E
:101CC0000000000000010101010101010101010109
:101CD00001000000000000000000000101010101FE
:101CE00001010101010101010101000000000000EA
:101CF00000000101010101010101010101010101D6
:101D000001010100000000000001010101010101C9
:101D100000000000000101010101010100000000BC
:101D200000010101010100000000000000000001AD
:101D30000101010100000000010101010101000099
:101D4000000000000000000101010101010000008D
:101D5000010101010100000000000000000000007E
:101D60000101010101000000010101010100000069
:101D7000000000000000000001010101010000005E
:101D8000010101010100000000000000000000004E
:101D90000101010101000000010101010100000039
:101DA000000000000000000001010101010000002E
:101DB000010101010101000000000000000000001D
:101DC0000101010101000000000101010101000009
:101DD00000000000000000000101010100000000FF
:101DE00000010101010101010000000000000001EB
:101DF00001010101000000000000010101010101D9
:101E000001000000000000010101010000000000CD
:101E100000000001010101010101010000000101B8
:101E200001010000000000000000000001010101AC
:101E30000101010101010101010000000000000099
:101E40000000000000010101010101010101010187
:101E5000000000000000000000000001010101017D
:101E60000101010101010101010100000000000068
:101E70000000010101010100000001010101010157
:101E8000010101000000000000010101010100004A
:101E9000000000000001010101010101000000003B
:101EA000010101010100000000000000000001012B
:101EB0000101010101000000010101010100000018
:101EC000000000000000000001010101010000010C
:101ED00001010101000000000000000000000000FE
:101EE00001010101010100010101010100000000E7
:101EF00000000000000000000001010101010001DC
:101F000001010101000000000000000000000000CD
:101F100000010101010100010101010100000000B7
:101F200000000000000000000001010101010001AB
:101F3000010101010000000000000000000000009D
:101F40000001010101010001010101010000000087
:101F5000000000000000000000010101010100017B
:101F6000010101010100000000000000000000006C
:101F70000101010101010000010101010100000056
:101F8000000000000000000001010101010000004C
:101F9000010101010101000000000000000000013A
:101FA0000101010101000000000101010101010125
:101FB000000000000001010101010101000000001A
:101FC0000000010101010101010101010101010103
:101FD00001010100000000000000000101010101F9
:101FE00001010101010101010101000000000000E7
:101FF00000000000010101010101010101010101D5
:1020000001000000000000000000000000000001CE
:1020100001010101010100000000000000000000BA
:1020200000000000000101010101010101010101A5
:10203000000000000000000000000001010101019B
:102040000101010101010101010000000000000087
:102050000000010101010101010101010101010172
:102060000101000000000000000101010101010167
:10207000000000000001010101010100000000005A
:102080000001010101010000000000000000010149
:102090000101010100000000010101010100000037
:1020A000000000000000000101010101000000002B
:1020B000010101010100000000000000000000001B
:1020C0000101010101000001010101010000000006
:1020D00000000000000000000101010101000001FA
:1020E00001010101000000000000000000000000EC
:1020F00001010101010000010101010100000000D6
:1021000000000000000000000001010101010001C9
:1021100001010101000000000000000000000000BB
:1021200000010101010100010101010100000000A5
:102130000000000000000000000101010101000199
:10214000010101010000000000000000000000008B
:102150000001010101010001010101010000000075
:102160000000000000000000000101010101000169
:10217000010101010100000000000000000000005A
:102180000001010101010000010101010100000045
:10219000000000000000000000010101010100003A
:1021A0000101010101010000000000000000000029
:1021B0000101010101010000000101010101010112
:1021C0000000000000000101010101010101000007
:1021D00000010101010101010101010101010101F0
:1021E00001010101010100000000010101010101E3
:1021F00001010101010101010101010101010000D1
:1022000000000000010101010101010101010100C3
:1022100000010101010100000000000000000101B7
:1022200001010101010000000001010101000000A5
:10223000000000000000000000000000000000009E
:10224000000101010100000000000000000000008A
:102250000000000000000000010101010100000079
:10226000000000000000000000000000000000006E
:102270000101010101000000000000000000000059
:102280000000000000000000010101010100000049
:10229000000000000000000000000000000000013D
:1022A000010101010000000000000000000000002A
:1022B0000000000000000001010101010000000019
:1022C000000000000000000000000000000001010C
:1022D00001010100000000000000000000000000FB
:1022E00000000000000101010101010000000000E8
:1022F00000000000000000000000000001010101DA
:1023000001010000000000000000000000000000CB
:1023100000000101010101010100000000000000B6
:10232000000001010101010101010101010101019F
:102330000000000000000000000001010101010197
:102340000101010101010100000000000000000086
:102350000000010101010101010101010100000072
:10236000000000000000004A92FF11241FBECFEFC2
:10237000CDBFDFE7DEBF10E4A0E0B0E4EEE9F9E3B3
:1023800000E00BBF02C007900D92A63BB107D9F742
:1023900020E4A6EBB0E401C01D92A03FB207E1F734
:1023A0000E940C180C94CD1C0C9400006150710913
:1023B00020E030E00EC0DC01A20FB31F4C91FC0105
:1023C000E60FF71F50815C9340832F5F3F4F6150B2
:1023D0007109261737077CF30895CF92DF92EF92A9
:1023E000FF920F931F93CF93DF938A016901C0E09F
:1023F000D0E011C07801EC0EFD1E2AE030E040E094
:1024000050E00E94691C605DF7016083622F732FAA
:10241000842F952F2196611571058105910551F73E
:1024200006C0F801EC0FFD1F80E380832196CC15D8
:10243000DD05BCF3BE01C8010E94D611F801EC0F06
:10244000FD1F1082CE01DF91CF911F910F91FF9060
:10245000EF90DF90CF9008958F929F92AF92BF92AE
:10246000CF92DF92EF92FF920F931F93CF93DF9360
:102470006B017C018A01E9010E9476194B015C0124
:10248000072E000C880B990B0E94AE199B01AC0122
:10249000C701B6010E9492186B017C01B40199201A
:1024A00024F46627772768197909072E000C880B12
:1024B000990B20E030E0A8010E94ED115C0120970B
:1024C00081F1F801E80FF91F8EE28083BE010D2E25
:1024D000000C880B990B0E94AE199B01AC0160E0C7
:1024E00070E080E291E40E94D01A9B01AC01C70128
:1024F000B6010E94631A2FEFA21AB20A0E9476193F
:102500009B01772324F422273327261B370BA801AE
:102510004A0D5B1DB901330F880B990B9E010E9478
:10252000ED11DF91CF911F910F91FF90EF90DF9010
:10253000CF90BF90AF909F908F900895E0E4F4E02B
:1025400020812D7F2083208121602083BC0180E0B9
:1025500090E00E94AC1920E030E040E851E40E9495
:10256000631A9B01AC0160E07BE187EB9EE40E9473
:10257000041920E030E040E05FE30E9493180E94DD
:102580007D19E0E2F8E0608771878681806C868340
:1025900008959091240895FFFCCF80932208089518
:1025A0000F931F93CF93DF938C01C0E0D0E007C05F
:1025B000F801EC0FFD1F80810E94C9122196F801DD
:1025C00001900020E9F73197E01BF10BCE17DF07F0
:1025D00078F38AE00E94C912DF91CF911F910F9189
:1025E00008959A014AEB50E40E942C128AEB90E481
:1025F0000E94D0120895E0E0F4E08081806880833A
:10260000A4E0B4E08C9180688C93808180618083A9
:1026100080818F7D8083808180648083E0E4F9E025
:102620008081806380838081816080838C918068D9
:102630008C93089580934409809143098823E4F79B
:102640000895E0E0F9E081E0858383E084830895E4
:10265000E0E0F9E080818F7E80838081837F8083CA
:1026600080818D7F80830895E0E0F9E087E68683AE
:1026700081E0858383818A60838383818160838312
:102680000895CF93DF93C82FD62F809105098370CB
:10269000833089F48EE390E40E94D01220E63AEE73
:1026A00001C09C01809105098370833021F4C90128
:1026B0000197232BB1F785E080930509DD2341F0D5
:1026C0008C2F90E0880F991F81608093070904C0C8
:1026D0008C2F880F8093070980E69AEE20910509D8
:1026E00024FF06C02091050926FD02C00197B1F71D
:1026F000892B21F488E490E40E94D012809105098E
:1027000082FF04C080E590E40E94D012DF91CF9157
:102710000895CF93DF93C0E6DAEE80910509882310
:1027200014F02197D1F78091050983FD04C08091B1
:10273000050982FF06C083E890E40E94D0120E943F
:102740002113CD2B21F488E490E40E94D0128091D3
:102750000809DF91CF9108950E9428130E94341335
:1027600061E088E70E9441130895CF92DF92EF92D3
:10277000FF92CF93DF930E9489138F77C82FD0E009
:10278000DC2FCC270E948913C82B0E9489130E943A
:102790008913BE0180E090E00E94AC1920E030ED8A
:1027A0004CE455E40E9492182BE734E143E853E4EB
:1027B0000E94041920E030E0A9010E9493186B01E7
:1027C0007C0120E030E048EC52E40E945E1A1816CA
:1027D0001CF4C12CD12C760120E030E0A901C70106
:1027E000B6010E94FF1818161CF0C12CD12C7601DE
:1027F000C701B601DF91CF91FF90EF90DF90CF90AE
:10280000089582E88093A000E0E0F6E081E0828312
:102810008083089581E080930A06089580930806D6
:102820000E940A1480910D0680FFFCCF8091100653
:102830009091110608950F931F93CF93DF938C010E
:10284000D62FE4E0F4E080818F778083C0E007C07A
:10285000F801EC0FF11D80810E941A13CF5FCD1794
:10286000B8F3E4E0F4E0808180688083DF91CF9169
:102870001F910F9108950F931F93CF93DF93C4E09F
:10288000D4E098819F77988300E214E0F801948166
:102890009F7E94830E941A13F8018481806184834F
:1028A000888180688883DF91CF911F910F9108956F
:1028B000CF92DF92EF92FF920F931F93CF93DF930C
:1028C00000D000D0CDB7DEB7803931E09307A8F54E
:1028D000403931E0530788F5693C78F5293C68F5C3
:1028E0004817590750F1261740F1C22E7A01D62E0B
:1028F0008C018AE20E943B1419829801ABEABAEA81
:102900000E94881C969587958A831B8297010E9456
:10291000881C969587958C8364E0CE0101960E9471
:102920001B148BE20E943B141982DA821B82CC8238
:1029300064E0CE0101960E941B142496CDBFDEBF39
:10294000DF91CF911F910F91FF90EF90DF90CF908B
:1029500008951F93CF93DF93CDB7DEB7C558D10944
:10296000CDBFDEBF90E00FC0292F30E0E82FF0E0B0
:10297000EA59FC4DE491A1E0B0E0AC0FBD1FA20FFD
:10298000B31FEC939F5F953878F327EC4FE851E045
:1029900060E080E090E00E9458148CE20E943B14BA
:1029A00010E006C065E8CE0101960E941B141F5F6F
:1029B000183CC0F3CB57DF4FCDBFDEBFDF91CF91C7
:1029C0001F9108950F931F93CF93DF9300D000D0F2
:1029D000CDB7DEB7182F81E08093EE40E4E0F4E05D
:1029E000808180688083E0E2F4E084818061848378
:1029F000E0E4F4E08481806284838FE295E70197CC
:102A0000F1F700C0000084818F7D848390EA9A955D
:102A1000F1F78481806284832FEF89EC98E0215064
:102A200080409040E1F700C0000081E00E943B142C
:102A30002FEF89EC98E0215080409040E1F700C0F2
:102A4000000081E10E943B1488E20E943B1480EC6C
:102A50000E943B14909107408091084099838A839B
:102A600062E0CE0101960E941B1483EC0E943B148D
:102A700005E0098361E0CE0101960E941B1484ECFD
:102A80000E943B14098361E0CE0101960E941B1451
:102A900080ED0E943B1481ED898361E0CE010196B7
:102AA0000E941B1483EB0E943B14198261E0CE014B
:102AB00001960E941B1485EB0E943B148BE88983CE
:102AC00061E0CE0101960E941B14812F88630E9451
:102AD0003B148AE30E943B1482E0898361E0CE01CB
:102AE00001960E941B1486E30E943B14198261E048
:102AF000CE0101960E941B1480EB0E943B148FE9CB
:102B0000898361E0CE0101960E941B14812F806FA2
:102B10000E943B1482E189838B838C838D8364E0E4
:102B2000CE0101960E941B1480E20E943B1489E2B0
:102B30000E943B1480E00E94A9142496CDBFDEBF02
:102B4000DF91CF911F910F910895A0E0B4E08C9197
:102B500081608C9350968C915097886050968C939E
:102B60005097E0E0FAE088EB9BE086A397A3809182
:102B700005409091064080A791A710A211A28181E3
:102B80008061818381818360818380818160808392
:102B90008081866080838C9182608C9351968C9129
:102BA0005197886051968C93818180628183808166
:102BB00082608083809103409091044082A793A714
:102BC00008950F931F93CF93DF938C01D62FE4E0EA
:102BD000F4E080818F778083C0E007C0F801EC0FBC
:102BE000F11D80810E941A13CF5FCD17B8F3E4E086
:102BF000F4E0808180688083DF91CF911F910F91F5
:102C00000895AF92BF92CF92DF92EF92FF920F930F
:102C10001F93CF93DF9300D000D0CDB7DEB75C0118
:102C2000F62E6A018AE20E943B14198223E030E00A
:102C3000C501B9010E94551C6A831B82C601B901F6
:102C40000E94551C6C8364E0CE0101960E94E11540
:102C50008BE20E943B141982FA821B828FE98C83DB
:102C600064E0CE0101960E94E1158CE20E943B14C3
:102C70006E2DC8010E94E1152496CDBFDEBFDF9105
:102C8000CF911F910F91FF90EF90DF90CF90BF9069
:102C9000AF9008952F923F924F925F926F927F92E2
:102CA0008F929F92AF92BF92CF92DF92EF92FF925C
:102CB0000F931F93CF93DF93CDB7DEB72897CDBF88
:102CC000DEBF89839A834B835C8339018DB79EB7BE
:102CD0008F8398878E2D90E02C01440C551C480E54
:102CE000591E212C312CC12CD12C6D837E83A02E1A
:102CF000BE2C5FC08DB69EB68DB79EB78419950960
:102D00008DBF9EBF0DB71EB70F5F1F4F980180E0AC
:102D100090E005C0F901E80FF91F108201968415B3
:102D20009505C4F340E050E060E070E029C0F30195
:102D3000EC0DFD1DE4909FEFC91AD90A87E090E0E1
:102D40001BC0EE2DF0E0082E02C0F595E7950A9421
:102D5000E2F7E0FF0BC0D901A70FB11DFC90E62FF1
:102D6000F0E0E050F04CE081EF29EC936F5F6330CE
:102D700010F07F5F60E0019799231CF74F5F5F4F72
:102D80008B2D86958695869590E0481759077CF29D
:102D90006D817E81620D731D720121E04B815C812A
:102DA00089819A810E9401168DBE9EBE8FEF281ADE
:102DB000380A8A2D90E0281639060CF49BCF8F81B3
:102DC00098858DBF9EBF2896CDBFDEBFDF91CF9186
:102DD0001F910F91FF90EF90DF90CF90BF90AF9039
:102DE0009F908F907F906F905F904F903F902F902B
:102DF0000895CF92DF92EF92FF920F931F93CF939C
:102E0000DF9300D000D0CDB7DEB76C01162F79016B
:102E10008AE20E943B141982C60163E070E00E94BE
:102E2000551C6A831B8280E88C8364E0CE01019686
:102E30000E94E1158BE20E943B1419821A831B82C7
:102E40008FE98C8364E0CE0101960E94E1158CE24B
:102E50000E943B14602FC7010E94E1152496CDBF4C
:102E6000DEBFDF91CF911F910F91FF90EF90DF9028
:102E7000CF9008955F926F927F928F929F92AF92C0
:102E8000BF92CF92DF92EF92FF920F931F93CF9357
:102E9000DF93CDB7DEB72897CDBFDEBF3C014B0136
:102EA0006A01A12CB12C512CE12CF12C46C0FE0161
:102EB000319688E0DF011D928A95E9F780E090E085
:102EC00030E028C040E653E0C49EF001C59EF00DFE
:102ED000D49EF00D1124EE0DFF1DEA55FE4FE49136
:102EE000BFEFEB1AFB0AEE2371F0E1E0F0E0EC0F2C
:102EF000FD1FE30FF11D4081A52DB0E0A050B04CA7
:102F00002C91242B2083539422E0251510F43F5F4D
:102F1000512C019688319105ACF2B501680D791DEF
:102F200008E010E09E012F5F3F4F41E050E0C301F9
:102F30000E94F9168FEFA81AB80AA4E2AA16B104E3
:102F40000CF4B5CF2896CDBFDEBFDF91CF911F9196
:102F50000F91FF90EF90DF90CF90BF90AF909F9038
:102F60008F907F906F905F900895AF92BF92CF92B5
:102F7000DF92EF92FF920F931F93CF93DF938C0119
:102F80007B016091B6407091B7408091B8409091BC
:102F9000B9400E947619EB01C83E83E0D80764F07F
:102FA0008BE990E40E94D0121092B6401092B74084
:102FB0001092B8401092B9402AE030E0CE01B90139
:102FC0000E94551C6C01CB01B9010E94551C5C018B
:102FD000CE0164E670E00E94551CAB015527B70195
:102FE000C8010E943A17A5015527B701C8014B96A1
:102FF0000E943A17A6015527B701C801C6960E943C
:103000003A17DF91CF911F910F91FF90EF90DF90D2
:10301000CF90BF90AF90089595E288ED84BF9093D4
:103020006800E0E2F4E0808180618083E0E4F4E025
:103030008081806280830E94A5150E94AC1380E885
:1030400095E20E949E120E9401140E94FB1281E0F0
:103050000E94E2146894EE24E5F8F12C0FE010E0F1
:103060002AE631E040E250E069E170E089E190E079
:103070000E944A16C12CD12C7601C8EC11C00E94C6
:10308000B5139B01AC01C701B6010E9493186B01F7
:103090007C018FE697E10197F1F700C00000C15075
:1030A000C111EDCF20E030E048E453E4C701B601A0
:1030B0000E9404192FE03CED4EE452E40E94631A92
:1030C0006093B6407093B7408093B8409093B940F6
:1030D00042E050E00E94F11281E00E940E14BC0117
:1030E000990F880B990B0E94AE192AEB3BE84BEB2A
:1030F0005EE30E94631A20E030E84BEB54E40E9448
:1031000093180E947619609305407093064060936F
:10311000280A7093290A60E570E086E990E00E9431
:10312000B517A8CF5058BB27AA270E94AA180C94FD
:10313000241A0E94161A38F00E941D1A20F039F441
:103140009F3F19F426F40C94131A0EF4E095E7FB54
:103150000C940D1AE92F0E94351A58F3BA1762071A
:1031600073078407950720F079F4A6F50C94571A95
:103170000EF4E0950B2EBA2FA02D0B01B901900192
:103180000C01CA01A0011124FF27591B99F0593FD6
:1031900050F4503E68F11A16F040A22F232F342F1E
:1031A0004427585FF3CF469537952795A795F0406C
:1031B0005395C9F77EF41F16BA0B620B730B840B81
:1031C000BAF09150A1F0FF0FBB1F661F771F881F39
:1031D000C2F70EC0BA0F621F731F841F48F4879591
:1031E00077956795B795F7959E3F08F0B0CF939583
:1031F000880F08F09927EE0F9795879508950E94FC
:10320000E91908F481E008950E9418190C94241A11
:103210000E941D1A58F00E94161A40F029F45F3FD0
:1032200029F00C940D1A51110C94581A0C94131A7D
:103230000E94351A68F39923B1F3552391F3951B36
:10324000550BBB27AA2762177307840738F09F5FC7
:103250005F4F220F331F441FAA1FA9F335D00E2E34
:103260003AF0E0E832D091505040E695001CCAF7A1
:103270002BD0FE2F29D0660F771F881FBB1F261764
:1032800037074807AB07B0E809F0BB0B802DBF013B
:10329000FF2793585F4F3AF09E3F510578F00C940A
:1032A0000D1A0C94581A5F3FE4F3983ED4F38695B8
:1032B00077956795B795F7959F5FC9F7880F911D2B
:1032C0009695879597F90895E1E0660F771F881F17
:1032D000BB1F621773078407BA0720F0621B730BCA
:1032E000840BBA0BEE1F88F7E09508950E947D19B4
:1032F0006894B1110C94581A08950E943D1A88F0F0
:103300009F5798F0B92F9927B751B0F0E1F0660FA9
:10331000771F881F991F1AF0BA95C9F714C0B130EA
:1033200091F00E94571AB1E008950C94571A672F34
:10333000782F8827B85F39F0B93FCCF38695779519
:103340006795B395D9F73EF4909580957095619502
:103350007F4F8F4F9F4F0895E89409C097FB3EF42D
:1033600090958095709561957F4F8F4F9F4F9923D2
:10337000A9F0F92F96E9BB279395F6958795779550
:103380006795B795F111F8CFFAF4BB0F11F460FF10
:103390001BC06F5F7F4F8F4F9F4F16C0882311F068
:1033A00096E911C0772321F09EE8872F762F05C07C
:1033B000662371F096E8862F70E060E02AF09A9517
:1033C000660F771F881FDAF7880F9695879597F90C
:1033D0000895990F0008550FAA0BE0E8FEEF1616A6
:1033E0001706E807F907C0F012161306E407F507F9
:1033F00098F0621B730B840B950B39F40A2661F06D
:10340000232B242B252B21F408950A2609F4A1400F
:10341000A6958FEF811D811D089597F99F6780E81C
:1034200070E060E008959FEF80EC089500240A9416
:103430001616170618060906089500240A9412168F
:103440001306140605060895092E0394000C11F4C2
:10345000882352F0BB0F40F4BF2B11F460FF04C06F
:103460006F5F7F4F8F4F9F4F089557FD9058440FC8
:10347000551F59F05F3F71F04795880F97FB991FD3
:1034800061F09F3F79F08795089512161306140690
:10349000551FF2CF4695F1DF08C01616170618061D
:1034A000991FF1CF86957105610508940895E894F8
:1034B000BB2766277727CB0197F908950E94E91962
:1034C00008F48FEF08950E94761A0C94241A0E9433
:1034D000161A38F00E941D1A20F0952311F00C9452
:1034E0000D1A0C94131A11240C94581A0E94351AB0
:1034F00070F3959FC1F3950F50E0551F629FF00147
:10350000729FBB27F00DB11D639FAA27F00DB11D5F
:10351000AA1F649F6627B00DA11D661F829F2227E8
:10352000B00DA11D621F739FB00DA11D621F839F6F
:10353000A00D611D221F749F3327A00D611D231F45
:10354000849F600D211D822F762F6A2F11249F5793
:1035500050409AF0F1F088234AF0EE0FFF1FBB1F96
:10356000661F771F881F91505040A9F79E3F510555
:1035700080F00C940D1A0C94581A5F3FE4F3983EB7
:10358000D4F3869577956795B795F795E7959F5FFF
:10359000C1F7FE2B880F911D9695879597F9089591
:1035A000FA01EE0FFF1F309621053105A1F16115DB
:1035B000710561F48038BFE39B0749F16894903846
:1035C000810561F08038BFEF9B0741F099234AF5F0
:1035D000FF3FE1053105210519F1E8940894E795CD
:1035E000D901AA2329F4AB2FBE2FF85FD0F310C066
:1035F000FF5F70F4A695E0F7F73950F019F0FF3A45
:1036000038F49F779F930DD00F9007FC9058089542
:1036100046F00C94131A60E070E080E89FE3089590
:103620004FE79F775F934F933F932F930E94CB1B5E
:103630002F913F914F915F910E94631A0C94281B28
:1036400029F416F00C940D1A0C94571A0C94131AB2
:103650000E943D1AA8F39638A0F707F80F92E89455
:103660002BE33AEA48EB5FE70E94791A0F920F9238
:103670000F924DB75EB70F920E94131CE8EEF0E078
:103680000E945A1B4F915F91EF91FF91E595EE1FBC
:10369000FF1F49F0FE57E0684427EE0F441FFA95DC
:1036A000E1F74195550B0E948D1B0F9007FE0C947E
:1036B000811B0895DF93CF931F930F93FF92EF9297
:1036C000DF927B018C01689406C0DA2EEF010E9424
:1036D000761AFE01E894A591259135914591559171
:1036E000A6F3EF010E94AA18FE019701A801DA943F
:1036F00069F7DF90EF90FF900F911F91CF91DF91CD
:1037000008959B01AC0160E070E080E89FE30C94B9
:1037100004190C940D1A0C94471C0E943D1AD8F3FE
:103720009923C9F3940F511DA3F39150504094F085
:1037300059F0882332F0660F771F881F9150504050
:10374000C1F79E3F51052CF7880F911D96958795DF
:1037500097F908955F3FACF0983E9CF0BB278695A3
:1037600077956795B79508F4B1609395C1F7BB0F4E
:1037700058F711F460FFE8CF6F5F7F4F8F4F9F4F77
:10378000E3CF0C94581A16F00C94471C0C94131A9F
:1037900068940C940D1A0E943D1AA8F39923C1F362
:1037A000AEF3DF93CF931F930F93FF92C92FDD27C3
:1037B00088232AF02197660F771F881FDAF720E009
:1037C00030E040E85FEB9FE3883920F0803E38F03E
:1037D00021968F770E949318E0E1F1E004C00E94E7
:1037E0009318EDE3F1E00E945A1B8B01BE01EC013E
:1037F000FB2E6F5771097595771F880B990B0E94E7
:10380000AE1928E132E741E35FE30E94761AAF2D5B
:103810009801AE01FF900F911F91CF91DF910E940F
:10382000AA180C94241AFA01DC01AA0FBB1F9B01F1
:10383000AC01BF5728F4222733274427507820C0F3
:10384000B75190F4AB2F0024469537952795011C6E
:10385000A395D2F3002071F0220F331F441FB395BC
:10386000DAF30ED00C94921861307105A0E88A0743
:10387000B94630F49B01AC016627772788279078FA
:10388000309621F0208331834283538308959F3FF4
:1038900031F0915020F4879577956795B795880F0B
:1038A000911D9695879597F9089597FB072E16F425
:1038B000009407D077FD09D00E94971C07FC05D023
:1038C0003EF4909581959F4F0895709561957F4F37
:1038D0000895052E97FB1EF400940E94801C57FD4E
:1038E00007D00E94AB1C07FC03D04EF40C94801C44
:1038F00050954095309521953F4F4F4F5F4F08951C
:1039000090958095709561957F4F8F4F9F4F08954B
:10391000A29FB001B39FC001A39F700D811D112410
:10392000911DB29F700D811D1124911D0895AA1B38
:10393000BB1B51E107C0AA1FBB1FA617B70710F09A
:10394000A61BB70B881F991F5A95A9F780959095CC
:10395000BC01CD010895A1E21A2EAA1BBB1BFD01DB
:103960000DC0AA1FBB1FEE1FFF1FA217B307E4075E
:10397000F50720F0A21BB30BE40BF50B661F771FB6
:10398000881F991F1A9469F7609570958095909596
:0E3990009B01AC01BD01CF010895F894FFCF5B
:10399E00C01803E803DC05F50052494600574946B6
:1039AE0000434C4B484F4C4400525841434B00414E
:1039BE0052424C4F535400425553455252004944C3
:1039CE004C45004F574E455200425553590049320F
:1039DE004320627573792E0074696D656F7574007E
:1039EE000A2D2D2D2D3E204572726F7220696E208C
:1039FE0073656E64696E6720616464722E0A004599
:103A0E0072726F7220696E20646174612073656ECC
:103A1E00742E004572726F7220696E20646174613B
:103A2E002072656369657665642E007072657373C6
:103A3E00757265206469676974206F766572666C4D
:063A4E006F77212100004A
:00000001FF
