S018000053756374696F6E50756D702870776D292E73726563E0
S11300000C94FD110C941C120C941C120C941C12D4
S11300100C941C120C941C120C941C120C941C12A4
S11300200C941C120C941C120C941C120C941C1294
S11300300C941C120C941C120C941C120C941C1284
S11300400C941C120C941C120C941C120C941C1274
S11300500C941C120C941C120C941C120C941C1264
S11300600C941C120C941C120C941C120C941C1254
S11300700C941C120C941C120C941C120C941C1244
S11300800C941C120C941C120C941C120C941C1234
S11300900C941C120C941C120C941C120C941C1224
S11300A00C941C120C941C120C941C120C941C1214
S11300B00C941C120C941C120C941C120C941C1204
S11300C00C941C120C941C120C941C120C941C12F4
S11300D00C941C120C941C120C941C120C941C12E4
S11300E00C941C120C941C1207634236B79BD8A7BD
S11300F01A39685618AEBAAB558C1D3CB7CC576349
S1130100BD6DEDFD753EF6177231BF000000803FF6
S113011008000000BE922449123EABAAAA2ABECD12
S1130120CCCC4C3E00000080BEABAAAAAA3E000084
S11301300000BF000000803F00000000000841787C
S1130140D3BB4387D1133D190E3CC3BD4282AD2BB3
S11301503E68EC8276BED98FE1A93E4C80EFFFBEAB
S113016001C4FF7F3F00000000000000000C0000FD
S11301700000001C00000000001C00000000000C37
S113018000000000000C00003000000C00003001F2
S1130190800C00003EE1F70C00FE7FF1FF8DE1FED4
S11301A07333998FF18C3333998E318C3331998C2D
S11301B0318C3331998C318C3331998C318C33318E
S11301C0998C30FC3331998C31F87BBBDDDE79803E
S11301D07BBBDDDE79FC0000000003FE00000000B4
S11301E003060000000003060000000003060000F0
S11301F0000003FE0000000001FC7FFFFFC0800040
S11302000020BEFEFFA0BF7F7FA0BFBFBFB89FDF9F
S1130210DFA4AFEFEFA4B7F7F7A4BBFBFBA4BDFDCE
S1130220FDB8BEFEFEA0BF7F7F20BFBFBFA0800081
S113023000207FFFFFC0000000000000000000005D
S113024000000000000000000000000000000000AA
S11302500000000000000001010101010100000094
S11302600000000000000000000000000101010186
S11302700101010101010101000000000000000072
S1130280000000010101010101010101010101015D
S11302900100000000000000000001010101010153
S11302A00101010101010101010100000000000040
S11302B00000010101010101000000000101010130
S11302C00101000000000000000101010101000023
S11302D00000000000000101010101000000000015
S11302E00001010101010000000000000000010103
S11302F001010100000000000101010101000000F2
S113030000000000000000010101010100000000E4
S113031001010101010000000000000000000001D3
S113032001010101000000000101010101000000C0
S113033000000000000000010101010100000000B4
S113034001010101000000000000000000000000A5
S11303500101010100000001010101010000000090
S11303600000000000000000010101010100000183
S11303700101010100000000000000000000000075
S1130380010101010100000101010101000000005F
S11303900000000000000000010101010100000153
S11303A00101010100000000000000000000000045
S11303B0010101010100000101010101000000002F
S11303C00000000000000000010101010100000123
S11303D00101010100000000000000000000000015
S11303E001010101010000010101010100000000FF
S11303F000000000000000000101010101000001F3
S113040001010101000000000000000000000000E4
S113041001010101010000010101010100000000CE
S113042000000000000000000101010101000001C2
S113043001010101000000000000000000000000B4
S1130440010101010100000101010101000000009E
S11304500000000000000000010101010100000192
S11304600101010100000000000000000000000084
S1130470010101010100000101010101000000006E
S11304800000000000000000010101010100000162
S11304900101010100000000000000000000000054
S11304A0010101010100000001010101000000003F
S11304B00000000000000000010101010000000034
S11304C00101010101000000000000000000000122
S11304D0010101010000000001010101010000000F
S11304E00000000000000001010101010000000003
S11304F001010101010000000000000000000001F2
S113050001010101000000000001010101010000DE
S113051000000000000001010101010000000000D2
S113052000010101010100000000000000000101C0
S113053001010100000000000000010101010101AE
S113054000000000010101010101000000000000A1
S11305500000010101010101010101010101010189
S11305600101000000000000000000010101010180
S1130570010101010101010101000000000000006E
S1130580000000000101010101010101010101015B
S11305900000000000000000000000000000000057
S11305A00000000000000000000000000000000047
S11305B00000000000000000010101010000000033
S11305C00000000000000000000000000000000027
S11305D00101010100000000000000000000000013
S11305E00000000000000001010101010000000002
S11305F000000000000000000000000000000001F6
S113060001010101000000000000000000000000E2
S113061000000000000101010101010100000000CF
S113062000000000000000000001010101010101BF
S113063001010101000000000000000000000000B2
S1130640000101010101010101010101000000009B
S1130650000000000000000000010101010101018F
S11306600101010100000000000000000000000082
S11306700000000000000001010101010000000071
S11306800000000000000000000000000000000165
S11306900101010100000000000000000000000052
S11306A00000000000000001010101010000000041
S11306B00000000000000000000000000000000135
S11306C00101010100000000000000000000000022
S11306D00000000000000001010101010000000011
S11306E00000000000000000000000000000000105
S11306F001010101000000000000000000000000F2
S113070000000000000000010101010100000000E0
S113071000000000000000000000000000000001D4
S113072001010101000000000000000000000000C1
S113073000000000000000010101010100000000B0
S113074000000000000000000000000000000001A4
S11307500101010100000000000000000000000091
S11307600000000000000001010101010000000080
S11307700000000000000000000000000000000174
S11307800101010100000000000000000000000061
S11307900000000000000001010101010000000050
S11307A00000000000000000000000000000000144
S11307B00101010100000000000000000000000031
S11307C00000000000000001010101010000000020
S11307D00000000000000000000000000000000114
S11307E00101010100000000000000000000000001
S11307F000000000000000010101010100000000F0
S113080000000000000000000000000000000001E3
S113081001010101000000000000000000000000D0
S113082000000000000000010101010100000000BF
S113083000000000000000000000000000000001B3
S113084001010101000000000000000000000000A0
S1130850000000000000000101010101000000008F
S11308600000000000000000000000000000000183
S11308700101010100000000000000000000000070
S1130880000000000000000101010101000000005F
S1130890000000000000000000010101010101014D
S11308A0010101010101010101010000000000003A
S11308B00001010101010101010101010101010125
S11308C0010100000000000000010101010101011B
S11308D0010101010101010101010000000000000A
S11308E000010101010101010101010101010101F5
S11308F001010000000000000000000000000101F0
S113090001010101010100000000000000000000DD
S113091000000101010101010101010101010101C5
S113092000000000000000000001010101010101BC
S113093001010101010101010100000000000000AA
S11309400001010101010101010101010101010194
S1130950010100000000000000010101010100008C
S1130960000000000101010101010100000000007C
S1130970000101010000000000000000000101016D
S1130980010101000000000000010000000000005F
S1130990000000000000010101010101000000004D
S11309A00000000000000000000000000000000142
S11309B0010101010000000000000000000000002F
S11309C0000000000000000101010101000000001E
S11309D00000000000000000000000000000000112
S11309E001010101000000000000000000000000FF
S11309F000000000000000010101010100000000EE
S1130A0000000000000000000000000000000001E1
S1130A1001010101000000000000000000000000CE
S1130A2000000000000000010101010100000000BD
S1130A3000000000000000000000000000000101B0
S1130A40010101010000000000000000000000009E
S1130A50000000000000010101010100000000008D
S1130A600000000000000000000000000000010180
S1130A70010101000000000000000000000000006F
S1130A80000000000001010101010000000000005D
S1130A90000000000000000000000000010101014E
S1130AA00101000000000000000000000000000040
S1130AB0000000000101010101000000000000002D
S1130AC0000000000000000000000001010101011D
S1130AD00000000000000000000000000000000012
S1130AE000000101010101010000000000000000FC
S1130AF000000000000000000001010101010100EC
S1130B0000000000000000000000000000000000E1
S1130B1001010101010100000000000000000000CB
S1130B2000000000000000010101010101000000BB
S1130B3000000000000000000000000000000001B0
S1130B40010101010000000000000000000000009D
S1130B50000000000000010101010100000000008C
S1130B60000000000000000000000000000101017E
S1130B70010100000000000000000000000000006F
S1130B80000000000101010101000000000000005C
S1130B90000000000000000000000001010101014C
S1130BA00000000000000000000000000000000041
S1130BB0000001010101010000000000000000002C
S1130BC0000000000000000000010101010100001C
S1130BD00000000000000000000000000000000011
S1130BE001010101010000000000000000000000FC
S1130BF000000000000000000101010101010101E9
S1130C0001010101010101010101010101000000D3
S1130C1001010101010101010101010101010101C0
S1130C2001010101010000000101010101010101B3
S1130C3001010101010101010101010101000000A3
S1130C400101010101010101010101010101010190
S1130C500101010101000000000000000001010188
S1130C60010101010100000000000000000000007B
S1130C700001010101010101010101010101010062
S1130C800000000000000000010101010101010158
S1130C900101010101010101010000000000000047
S1130CA00101010101010101010101010101010130
S1130CB0010000000000000001010101010000002A
S1130CC00000000101010101010100000000000019
S1130CD0010101000000000000000000000101010A
S1130CE001010100000000000100000000000000FC
S1130CF000000000000101010101010000000000EA
S1130D0000000000000000000000000000000101DD
S1130D1001010100000000000000000000000000CC
S1130D2000000000000001010101010000000000BA
S1130D3000000000000000000000000000000101AD
S1130D40010101000000000000000000000000009C
S1130D50000000000000010101010100000000008A
S1130D60000000000000000000000000000001017D
S1130D70010100000000000000000000000000006D
S1130D80000000000001010101010000000000005A
S1130D90000000000000000000000000010101014B
S1130DA0010000000000000000000000000000003E
S1130DB00000010101010101010000000000000028
S1130DC00000000000000101010101010101010016
S1130DD0000000000000000000000000000001010D
S1130DE001010101010000000000000000000000FA
S1130DF000000000000001010101010101010100E6
S1130E0000000000000000000000000000000101DC
S1130E1001010101010101010100000000000000C5
S1130E2000000000000000000000000001010101BA
S1130E3001010000000000000000000000000000AC
S1130E400000000000010101010101000000000098
S1130E50000000000000000000000000000001018C
S1130E60010101000000000000000000000000007B
S1130E700000000000000001010101010000000069
S1130E80000000000000000000000000000000015D
S1130E90010101010000000000000000000000004A
S1130EA00000000000000001010101010000000039
S1130EB0000000000000000000000000000000012D
S1130EC0010101010000000000000000000000001A
S1130ED00000000000000001010101010000000009
S1130EE000000000000000000000000000000001FD
S1130EF001010101000000000000000000000000EA
S1130F0000000000000000010101010100000000D8
S1130F1000000000000000000000000000000101CB
S1130F2001010100000000010000000000000000B9
S1130F3000000000000001010101010000000001A7
S1130F400101000000000000000000000001010198
S1130F500101010000000001010101010100000084
S1130F600000000101010101010100000000000175
S1130F70010101010101010101010101010101015D
S1130F800100000000000001010101010101010153
S1130F900101010101010101000000000000000045
S1130FA0010101010101010101010101010101002E
S1130FB0000000000000000000000000000000002D
S1130FC0000000000000000000000000000000001D
S1130FD0000000000000000000000000000101010A
S1130FE001010000000000000000000000000000FB
S1130FF000000000010101010101000000000000E7
S113100000000000000000000000000101010101D7
S113101001010000000000000000000000000000CA
S113102000000101010101010101000000000000B4
S113103000000000000000000001010101010101A5
S1131040010100000000000000000000000000009A
S11310500001010101010101010100000000000083
S11310600000000000000000010101010101010174
S11310700101000000000000000000000000000169
S11310800101010100010101010100000000000053
S11310900000000000000101010101000001010144
S11310A00101000000000000000000000001010137
S11310B00101000000010101010100000000000025
S11310C00000000001010101010000000001010114
S11310D00101000000000000000000010101010105
S11310E000000000000101010101000000000000F7
S11310F000000001010101000000000000010101E5
S113110001010000000000000000010101010100D4
S113111000000000000101010101000000000000C6
S113112000010101010100000000000000010101B3
S113113001010000000000000101010101000000A4
S11311400000000000010101010100000000000195
S11311500101010100000000000000000001010184
S11311600101000000000101010101000000000074
S11311700000000000010101010100000000010164
S11311800101000000000000000000000001010156
S1131190010100000000010101010101010101013F
S11311A0010101010101010101010101010101012B
S11311B0010101010101010101010101010101011B
S11311C0010101010101010101010101010101010B
S11311D001010101010101010101010101010101FB
S11311E001010101010101010101010101010101EB
S11311F001010101010100000000000000000000E5
S113120000000000000101010101000000000000D5
S113121000000000000000000000000000010101C7
S113122001010000000000000000000000000000B8
S113123000000000000101010101000000000000A5
S11312400000000000000000000000000001010197
S11312500101000000000000000000000000000088
S11312600000000000010101010100000000000075
S11312700000000000000000000000000001010167
S11312800101000000000000000000000000000058
S11312900000000000010101010100000000000045
S11312A00000000000000000000000000001010137
S11312B00101000000000000000000000000000028
S11312C00000000000010101010100000000000015
S11312D00000000000000000000000000001010107
S11312E001010000000000000000000000000000F8
S11312F000000000000101010101000000000000E5
S113130000000000000000000000000000010101D6
S113131001010000000000000001010101010101C0
S113132001010101010101010101010101000000AC
S1131330000101010101010101010101010101019A
S1131340010101010100000000010101010101018D
S1131350010101010101010101010101010000007C
S1131360000101010101010101010101010101016A
S1131370010101010100000000010101010100005F
S11313800000000000000000000000000000000059
S11313900001010101010000000000000000000044
S11313A00000000000000000000101010101000034
S11313B00000000000000000000000000000000029
S11313C00001010101010000000000000000000014
S11313D00000000000000000000101010101000004
S11313E000000000000000000000000000000000F9
S11313F000010101010100000000000000000000E4
S113140000000000000000000001010101010000D3
S113141000000000000000000000000000000000C8
S113142000010101010100000000000000000000B3
S113143000000000000000000001010101010000A3
S11314400000000000000000000000000000000098
S1131450000101010101010101010101010100007B
S11314600000000000000000000101010101010171
S11314700101010101010101000000000000000060
S11314800001010101010101010101010101010149
S1131490010100000000000000010101010101013F
S11314A0010101010101010101010100000000002D
S11314B00001010000000000000000000101010122
S11314C00101010000000000000000000000000015
S11314D00000000000000101010101010000000002
S11314E000000000000000000000000000000001F7
S11314F001010101000000000000000000000000E4
S113150000000000000000010101010101000000D1
S113151000000000000000000000000000000000C7
S113152001010101010000000000000000000000B2
S113153000000000000000000101010101000000A2
S11315400000000000000000000000000000000097
S11315500101010101000000000000000000000082
S11315600000000000000000010101010100000072
S11315700000000000000000000000000000000067
S11315800101010101000000000000000000000052
S11315900000000000000000010101010100000042
S11315A00000000000000000000000000000000136
S11315B00101010101000000000000000000000022
S11315C00000000000000001010101010000000012
S11315D00100000000000000000000000000010104
S11315E001010101000000000101010000000000F0
S11315F000000000000001010101010000000000E2
S113160001010101010100000000000001010101CC
S113161001010100000000000101010101010101BB
S113162001010101010101010101000000000000AC
S11316300101010101010101010101010101010196
S1131640010000000000000000010101010101018E
S1131650010101010101010000000000000000007F
S1131660000000000001010101010101010000006E
S11316700000000000000000000000000000000066
S1131680000000010101010101010100000000004E
S1131690000000000000000001010101010101013E
S11316A00101010000000000000000000000010131
S11316B0010101010101010101010100000000001B
S11316C0000000000001010101010101010101010B
S11316D001010100000000000000000001010101FF
S11316E001010100000000000000000000000000F3
S11316F000000001010101010101010000000000DE
S113170000000000000000000000010101010101CF
S113171001000000000000000000000000000000C4
S113172000000101010101010000000000000000AF
S1131730000000000000000000010101010101009F
S11317400000000000000000000000000000000095
S1131750000101010101010000000000000000007F
S1131760000000000000000001010101010100006F
S11317700000000000000000000000000000000065
S1131780010101010101000000000000000000004F
S1131790000000000000000001010101010100003F
S11317A00000000000000000000000000000000035
S11317B00101010101000000000000000000000020
S11317C00000000000000001010101010000000010
S11317D001010101010101000000000000000001FD
S11317E001010101000001010101010101010101E7
S11317F001000000000000010101010101010101DB
S113180001010101010101010101010000000001C8
S113181001010101010101010101010101010101B4
S113182001010101000000010101010101010100A8
S1131830000000000000010101010101000000019D
S1131840010101010100000000000000000000018E
S1131850010101010100000101010101000000007A
S1131860000000000000000001010101010000016E
S11318700101010100000000000000000000000060
S11318800101010101010001010101010000000049
S1131890000000000000000000010101010100013E
S11318A00101010100000000000000000000000030
S11318B0000101010101000101010101000000001A
S11318C0000000000000000000010101010100010E
S11318D00101010100000000000000000000000000
S11318E000010101010100000101010100000000EB
S11318F000000000000000000001010101010000DF
S113190001010101010000000000000000000000CE
S113191000010101010100000101010101000000B9
S113192000000000000000000001010101010000AE
S1131930010101010100000000000000000000009E
S11319400101010101000000000101010101000089
S1131950000000000000000001010101010000007E
S1131960000101010101010000000000000000016C
S11319700101010100000000000001010101010159
S1131980000000000001010101010101000000004C
S11319900000000101010101010101010101010136
S11319A0010101000000000000000000010101012C
S11319B00101010101010101010100000000000019
S11319C00000000000010101010101010101010108
S11319D00000000000000000000000000000000003
S11319E000000000000000000000000000000001F2
S11319F001010101010101010101010101010101D3
S1131A0001010101010000010101010101010101C4
S1131A1001010101010101010101010101000001B4
S1131A2001010101010101010101010101010101A2
S1131A300101010101000001010101010101010194
S1131A400101010101010101010101010100000085
S1131A500000000000000000000000000000000082
S1131A60010101010100000000000000000000006D
S1131A70000000000000000101010101010000005C
S1131A800000000000000000000000000000000151
S1131A90010101010000000000000000000000003E
S1131AA0000000000000010101010101000000002C
S1131AB00000000000000000000000000000010120
S1131AC0010101000000000000000000000000000F
S1131AD000000000000101010101010000000000FC
S1131AE000000000000000000000000000010101EF
S1131AF001010000000000000000000000000000E0
S1131B0000000000010101010101000000000000CB
S1131B1000000000000000000000000001010101BD
S1131B2001000000000000000000000000000000B0
S1131B30000000010101010101000000000000009B
S1131B40000000000000000000000001010101018C
S1131B500000000000000000000000000000000081
S1131B60000001010101010100000000000000006B
S1131B70000000000000000000000101010101005C
S1131B800000000000000000000000000000000051
S1131B90000101010101010000000000000000003B
S1131BA0000000000000000000010101010101002B
S1131BB00000000000000000000000000000000021
S1131BC0000101010101000000000000000000000C
S1131BD000000000000000000101010101010000FB
S1131BE000000000000000000000000000000000F1
S1131BF001010101010000000000000000000000DC
S1131C0000000000000000010101010101000000CA
S1131C1000000000000000000000000000000001BF
S1131C2001010101000000000000000000000000AC
S1131C30000000000000010101010101000000009A
S1131C40000000000000000000000000000001018E
S1131C50010101000000000000000000000000007D
S1131C60000000000001010101010100000000006A
S1131C70000000000000000000000000000101015D
S1131C80010100000000000000000000000000004E
S1131C90000000000101010101010000000000003A
S1131CA0000000000000000000000000010101012C
S1131CB0010000000000000000000000000000001F
S1131CC0000000010101010101000000000000000A
S1131CD000000000000000000000000101010101FB
S1131CE000000000000000000000000000000000F0
S1131CF000000101010101010000000000000000DA
S1131D0000000000000000000000010101010100CA
S1131D1000000000000000000000000000000000BF
S1131D2000010101010101000000000000000000A9
S1131D30000000000000000000000000000000019E
S1131D400101010101010000000000000000000089
S1131D500000000000010101010101010101010174
S1131D600100000000000000000000010101010169
S1131D700101010101010101010100000000000055
S1131D800000010101010101010101010101010141
S1131D900101010000000000000101010101010135
S1131DA00000000000010101010101010000000028
S1131DB00001010101010000000000000000000119
S1131DC00101010100000000010101010101000005
S1131DD000000000000000010101010101000000F9
S1131DE001010101010000000000000000000000EA
S1131DF001010101010000000101010101000000D5
S1131E0000000000000000000101010101000000C9
S1131E1001010101010000000000000000000000B9
S1131E2001010101010000000101010101000000A4
S1131E300000000000000000010101010100000099
S1131E400101010101010000000000000000000088
S1131E500101010101000000000101010101000074
S1131E60000000000000000001010101000000006A
S1131E700001010101010101000000000000000156
S1131E800101010100000000000001010101010144
S1131E900100000000000001010101000000000039
S1131EA00000000101010101010101000000010124
S1131EB00101000000000000000000000101010118
S1131EC00101010101010101010000000000000005
S1131ED000000000000101010101010101010101F3
S1131EE000000000000000000000000101010101E9
S1131EF001010101010101010101000000000000D4
S1131F0000000101010101000000010101010101C2
S1131F1001010100000000000001010101010000B5
S1131F2000000000000101010101010100000000A6
S1131F300101010101000000000000000000010196
S1131F400101010101000000010101010100000083
S1131F500000000000000000010101010100000177
S1131F600101010100000000000000000000000069
S1131F700101010101010001010101010000000052
S1131F800000000000000000000101010101000147
S1131F900101010100000000000000000000000039
S1131FA00001010101010001010101010000000023
S1131FB00000000000000000000101010101000117
S1131FC00101010100000000000000000000000009
S1131FD000010101010100010101010100000000F3
S1131FE000000000000000000001010101010001E7
S1131FF001010101010000000000000000000000D8
S113200001010101010100000101010101000000C1
S113201000000000000000000101010101000000B7
S113202001010101010100000000000000000001A5
S11320300101010101000000000101010101010190
S11320400000000000010101010101010000000085
S1132050000001010101010101010101010101016E
S11320600101010000000000000000010101010164
S11320700101010101010101010100000000000052
S11320800000000001010101010101010101010140
S1132090010000000000000000000000000000013A
S11320A00101010101010000000000000000000026
S11320B00000000000010101010101010101010111
S11320C00000000000000000000000010101010107
S11320D001010101010101010100000000000000F3
S11320E000000101010101010101010101010101DE
S11320F001010000000000000001010101010101D3
S113210000000000000101010101010000000000C5
S113211000010101010100000000000000000101B4
S113212001010101000000000101010101000000A2
S11321300000000000000001010101010000000096
S11321400101010101000000000000000000000086
S11321500101010101000001010101010000000071
S11321600000000000000000010101010100000165
S11321700101010100000000000000000000000057
S11321800101010101000001010101010000000041
S11321900000000000000000000101010101000135
S11321A00101010100000000000000000000000027
S11321B00001010101010001010101010000000011
S11321C00000000000000000000101010101000105
S11321D001010101000000000000000000000000F7
S11321E000010101010100010101010100000000E1
S11321F000000000000000000001010101010001D5
S113220001010101010000000000000000000000C5
S113221000010101010100000101010101000000B0
S113222000000000000000000001010101010000A5
S11322300101010101010000000000000000000094
S1132240010101010101000000010101010101017D
S11322500000000000000101010101010101000072
S1132260000101010101010101010101010101015B
S1132270010101010101000000000101010101014E
S1132280010101010101010101010101010100003C
S1132290000000000101010101010101010101002F
S11322A00001010101010000000000000000010123
S11322B00101010101000000000101010100000011
S11322C0000000000000000000000000000000000A
S11322D000010101010000000000000000000000F6
S11322E000000000000000000101010101000000E5
S11322F000000000000000000000000000000000DA
S113230001010101010000000000000000000000C4
S113231000000000000000000101010101000000B4
S113232000000000000000000000000000000001A8
S11323300101010100000000000000000000000095
S11323400000000000000001010101010000000084
S11323500000000000000000000000000000010177
S11323600101010000000000000000000000000066
S11323700000000000010101010101000000000053
S11323800000000000000000000000000101010145
S11323900101000000000000000000000000000037
S11323A00000010101010101010000000000000022
S11323B0000001010101010101010101010101010B
S11323C00000000000000000000001010101010103
S11323D001010101010101000000000000000000F2
S11323E000000101010101010101010101000000DE
S11323F0000000000000004A92FF11241FBECFEF2E
S1132400CDBFDFE7DEBF10E4A0E0B0E4E6E8FAE326
S113241000E00BBF02C007900D92A63BB107D9F7AD
S113242020E4A6EBB0E401C01D92A03FB207E1F79F
S11324300E9460180C94411D0C94000061507109B5
S113244020E030E00EC0DC01A20FB31F4C91FC0170
S1132450E60FF71F50815C9340832F5F3F4F61501D
S11324607109261737077CF30895CF92DF92EF9214
S1132470FF920F931F93CF93DF938A016901C0E00A
S1132480D0E011C07801EC0EFD1E2AE030E040E0FF
S113249050E00E94DD1C605DF7016083622F732FA2
S11324A0842F952F2196611571058105910551F7AA
S11324B006C0F801EC0FFD1F80E380832196CC1544
S11324C0DD05BCF3BE01C8010E941E12F801EC0F29
S11324D0FD1F1082CE01DF91CF911F910F91FF90CC
S11324E0EF90DF90CF9008958F929F92AF92BF921A
S11324F0CF92DF92EF92FF920F931F93CF93DF93CC
S11325006B017C018A01E9010E94EA194B015C011B
S1132510072E000C880B990B0E94221A9B01AC0118
S1132520C701B6010E9406196B017C01B401992010
S113253024F46627772768197909072E000C880B7D
S1132540990B20E030E0A8010E9435125C0120972D
S113255081F1F801E80FF91F8EE28083BE010D2E90
S1132560000C880B990B0E94221A9B01AC0160E0BD
S113257070E080E291E40E94441B9B01AC01C7011E
S1132580B6010E94D71A2FEFA21AB20A0E94EA19C2
S11325909B01772324F422273327261B370BA8011A
S11325A04A0D5B1DB901330F880B990B9E010E94E4
S11325B03512DF91CF911F910F91FF90EF90DF9033
S11325C0CF90BF90AF909F908F900895E0E4F4E097
S11325D020812D7F2083208121602083BC0180E025
S11325E090E00E94201A20E030E040E851E40E948C
S11325F0D71A9B01AC0160E07BE187EB9EE40E946B
S1132600781920E030E040E05FE30E9407190E945F
S1132610F119E0E2F8E0608771878681806C868337
S113262008959091240895FFFCCF80932208089583
S11326300F931F93CF93DF938C01C0E0D0E007C0CA
S1132640F801EC0FFD1F80810E9411132196F801FF
S113265001900020E9F73197E01BF10BCE17DF075B
S113266078F38AE00E941113DF91CF911F910F91AB
S1132670089520E030E04AEB50E40E9435128AEBE2
S113268090E40E94181308959A014AEB50E40E94C2
S113269074128AEB90E40E9418130895E0E0F4E0C9
S11326A0808180688083A4E0B4E08C9180688C93FE
S11326B080818061808380818F7D8083808180643C
S11326C08083E0E4F9E0808180638083808181609D
S11326D080838C9180688C930895809344098091C1
S11326E043098823E4F70895E0E0F9E081E0858375
S11326F083E084830895E0E0F9E080818F7E808325
S11327008081837F808380818D7F80830895E0E052
S1132710F9E087E6868381E0858383818A60838309
S11327208381816083830895CF93DF93C82FD62F4D
S1132730809105098370833089F48EE390E40E94CC
S1132740181320E63AEE01C09C01809105098370BC
S1132750833021F4C9010197232BB1F785E08093DD
S11327600509DD2341F08C2F90E0880F991F8160CB
S11327708093070904C08C2F880F8093070980E693
S11327809AEE2091050924FF06C02091050926FD33
S113279002C00197B1F7892B21F488E490E40E94E8
S11327A018138091050982FF04C080E590E40E941B
S11327B01813DF91CF910895CF93DF93C0E6DAEE3B
S11327C080910509882314F02197D1F78091050998
S11327D083FD04C08091050982FF06C083E890E46C
S11327E00E9418130E947413CD2B21F488E490E402
S11327F00E94181380910809DF91CF9108950E94D7
S11328007B130E94871361E088E70E949413089564
S1132810CF92DF92EF92FF92CF93DF930E94DC136B
S11328208F77C82FD0E0DC2FCC270E94DC13C82B75
S11328300E94DC130E94DC13BE0180E090E00E9441
S1132840201A20E030ED4CE455E40E9406192BE7F1
S113285034E143E853E40E94781920E030E0A90110
S11328600E9407196B017C0120E030E048EC52E43F
S11328700E94D21A18161CF4C12CD12C760120E027
S113288030E0A901C701B6010E94731918161CF0A3
S1132890C12CD12C7601C701B601DF91CF91FF90F5
S11328A0EF90DF90CF90089582E88093A000E0E05D
S11328B0F6E081E082838083089581E080930A06B4
S11328C00895809308060E945D1480910D0680FF90
S11328D0FCCF809110069091110608950F931F93D9
S11328E0CF93DF938C01D62FE4E0F4E080818F77DF
S11328F08083C0E007C0F801EC0FF11D80810E94C5
S11329006D13CF5FCD17B8F3E4E0F4E08081806805
S11329108083DF91CF911F910F9108950F931F939F
S1132920CF93DF93C4E0D4E098819F77988300E24B
S113293014E0F80194819F7E94830E946D13F80142
S1132940848180618483888180688883DF91CF91CA
S11329501F910F910895CF92DF92EF92FF920F9300
S11329601F93CF93DF9300D000D0CDB7DEB780396B
S113297031E09307A8F5403931E0530788F5693C05
S113298078F5293C68F54817590750F1261740F1A6
S1132990C22E7A01D62E8C018AE20E948E141982EC
S11329A09801ABEABAEA0E94FC1C969587958A8343
S11329B01B8297010E94FC1C969587958C8364E08A
S11329C0CE0101960E946E148BE20E948E1419822D
S11329D0DA821B82CC8264E0CE0101960E946E14DE
S11329E02496CDBFDEBFDF91CF911F910F91FF9051
S11329F0EF90DF90CF9008951F93CF93DF93CDB7DF
S1132A00DEB7C558D109CDBFDEBF90E00FC0292F76
S1132A1030E0E82FF0E0EA50FC4DE491A1E0B0E0B2
S1132A20AC0FBD1FA20FB31FEC939F5F953878F3D3
S1132A3027EC4FE851E060E080E090E00E94AB14A6
S1132A408CE20E948E1410E006C065E8CE01019667
S1132A500E946E141F5F183CC0F3CB57DF4FCDBFED
S1132A60DEBFDF91CF911F9108950F931F93CF93F2
S1132A70DF9300D000D0CDB7DEB7182F81E080936C
S1132A80EE40E4E0F4E0808180688083E0E2F4E0FA
S1132A90848180618483E0E4F4E0848180628483BF
S1132AA08FE295E70197F1F700C0000084818F7DE4
S1132AB0848390EA9A95F1F78481806284832FEF6E
S1132AC089EC98E0215080409040E1F700C000007C
S1132AD081E00E948E142FEF89EC98E02150804011
S1132AE09040E1F700C0000081E10E948E1488E26A
S1132AF00E948E1480EC0E948E1480910740909165
S1132B000840807F89839A8362E0CE0101960E9407
S1132B106E1483EC0E948E1405E0098361E0CE01FB
S1132B2001960E946E1484EC0E948E14098361E065
S1132B30CE0101960E946E1480ED0E948E1481EDE8
S1132B40898361E0CE0101960E946E1483EB0E949A
S1132B508E14198261E0CE0101960E946E1485EBF9
S1132B600E948E1480E8898361E0CE0101960E9460
S1132B706E14812F88630E948E148AE30E948E143F
S1132B8082E0898361E0CE0101960E946E1486E39F
S1132B900E948E14198261E0CE0101960E946E1487
S1132BA080EB0E948E148FE9898361E0CE01019647
S1132BB00E946E14812F806F0E948E1482E189839B
S1132BC08B838C838D8364E0CE0101960E946E1406
S1132BD080E20E948E1489E20E948E1480E00E949A
S1132BE0FC142496CDBFDEBFDF91CF911F910F91CE
S1132BF00895A0E0B4E08C9181608C9350968C9100
S1132C005097886050968C935097E0E0FAE088EBF8
S1132C109BE086A397A3809105409091064080A7EE
S1132C2091A710A211A28181806181838181836037
S1132C3081838081816080838081866080838C91A0
S1132C4082608C9351968C915197886051968C93A5
S1132C50818180628183808182608083809103404E
S1132C609091044082A793A708950F931F93CF9345
S1132C70DF938C01D62FE4E0F4E080818F778083AA
S1132C80C0E007C0F801EC0FF11D80810E946D13B4
S1132C90CF5FCD17B8F3E4E0F4E0808180688083EF
S1132CA0DF91CF911F910F910895AF92BF92CF9270
S1132CB0DF92EF92FF920F931F93CF93DF9300D095
S1132CC000D0CDB7DEB75C01F62E6A018AE20E941D
S1132CD08E14198223E030E0C501B9010E94C91C99
S1132CE06A831B82C601B9010E94C91C6C8364E01B
S1132CF0CE0101960E9435168BE20E948E14198231
S1132D00FA821B828FE98C8364E0CE0101960E94D3
S1132D1035168CE20E948E146E2DC8010E94351661
S1132D202496CDBFDEBFDF91CF911F910F91FF900D
S1132D30EF90DF90CF90BF90AF9008952F923F9285
S1132D404F925F926F927F928F929F92AF92BF92B7
S1132D50CF92DF92EF92FF920F931F93CF93DF9363
S1132D60CDB7DEB72897CDBFDEBF89839A834B8367
S1132D705C8339018DB79EB78F8398878E2D90E041
S1132D802C01440C551C480E591E212C312CC12CED
S1132D90D12C6D837E83A02EBE2C5FC08DB69EB6D3
S1132DA08DB79EB7841995098DBF9EBF0DB71EB709
S1132DB00F5F1F4F980180E090E005C0F901E80F14
S1132DC0F91F1082019684159505C4F340E050E084
S1132DD060E070E029C0F301EC0DFD1DE4909FEF6D
S1132DE0C91AD90A87E090E01BC0EE2DF0E0082E46
S1132DF002C0F595E7950A94E2F7E0FF0BC0D9010C
S1132E00A70FB11DFC90E62FF0E0E050F04CE081FC
S1132E10EF29EC936F5F633010F07F5F60E0019700
S1132E2099231CF74F5F5F4F8B2D8695869586956A
S1132E3090E0481759077CF26D817E81620D731D05
S1132E40720121E04B815C8189819A810E9455162F
S1132E508DBE9EBE8FEF281A380A8A2D90E0281660
S1132E6039060CF49BCF8F8198858DBF9EBF289621
S1132E70CDBFDEBFDF91CF911F910F91FF90EF90F7
S1132E80DF90CF90BF90AF909F908F907F906F9086
S1132E905F904F903F902F900895CF92DF92EF92E2
S1132EA0FF920F931F93CF93DF9300D000D0CDB741
S1132EB0DEB76C01162F79018AE20E948E14198202
S1132EC0C60163E070E00E94C91C6A831B8280E82B
S1132ED08C8364E0CE0101960E9435168BE20E9439
S1132EE08E1419821A831B828FE98C8364E0CE01CD
S1132EF001960E9435168CE20E948E14602FC70141
S1132F000E9435162496CDBFDEBFDF91CF911F916D
S1132F100F91FF90EF90DF90CF9008955F926F92A2
S1132F207F928F929F92AF92BF92CF92DF92EF9255
S1132F30FF920F931F93CF93DF93CDB7DEB72897FC
S1132F40CDBFDEBF3C014B016A01A12CB12C512C39
S1132F50E12CF12C46C0FE01319688E0DF011D9280
S1132F608A95E9F780E090E030E028C040E653E03D
S1132F70C49EF001C59EF00DD49EF00D1124EE0DFB
S1132F80FF1DEA5CFD4FE491BFEFEB1AFB0AEE2351
S1132F9071F0E1E0F0E0EC0FFD1FE30FF11D408163
S1132FA0A52DB0E0A050B04C2C91242B2083539439
S1132FB022E0251510F43F5F512C019688319105CC
S1132FC0ACF2B501680D791D08E010E09E012F5F99
S1132FD03F4F41E050E0C3010E944D178FEFA81A04
S1132FE0B80AA4E2AA16B1040CF4B5CF2896CDBF52
S1132FF0DEBFDF91CF911F910F91FF90EF90DF9093
S1133000CF90BF90AF909F908F907F906F905F9084
S11330100895AF92BF92CF92DF92EF92FF920F93F7
S11330201F93CF93DF938C017B016091B640709125
S1133030B7408091B8409091B9400E94EA19EB01E1
S1133040C83E83E0D80764F08BE990E40E9418132B
S11330501092B6401092B7401092B8401092B94006
S11330602AE030E0CE01B9010E94C91C6C01CB01F9
S1133070B9010E94C91C5C01CE0164E670E00E94A3
S1133080C91CAB015527B701C8010E948E17A501C1
S11330905527B701C8014B960E948E17A6015527E4
S11330A0B701C801C6960E948E17DF91CF911F9178
S11330B00F91FF90EF90DF90CF90BF90AF90089565
S11330C095E288ED84BF909368002FEF82E597E046
S11330D0215080409040E1F700C00000E0E2F4E0BD
S11330E0808180618083E0E4F4E080818062808379
S11330F00E94F9150E94FF1380E895E20E94E612EF
S11331000E9454140E944E1381E00E943515689465
S1133110EE24E5F8F12C0FE010E02AEF31E040E274
S113312050E06AE070E080E590E00E949E160F2E69
S1133130F0E3EF2EF12CF02D08E110E02AE631E067
S113314040E350E068E270E086EE90E00E949E1654
S1133150C12CD12C7601C8EC11C00E9408149B012B
S1133160AC01C701B6010E9407196B017C018FE60F
S113317097E10197F1F700C00000C150C111EDCFF4
S113318020E030E048E453E4C701B6010E94781916
S11331902FE03CED4EE452E40E94D71A6093B6400F
S11331A07093B7408093B8409093B94042E050E0A8
S11331B00E94441381E00E9461146C01990FEE088F
S11331C0FF08C701B6010E943913C701B6010E9466
S11331D0221A2AEB3BE84BEB5EE30E94D71A20E06D
S11331E030E84BEB54E40E9407190E94EA196093FB
S11331F00540709306406093280A7093290A60E59D
S113320070E086E990E00E940918A2CF5058BB27CD
S1133210AA270E941E190C94981A0E948A1A38F040
S11332200E94911A20F039F49F3F19F426F40C946B
S1133230871A0EF4E095E7FB0C94811AE92F0E949B
S1133240A91A58F3BA17620773078407950720F081
S113325079F4A6F50C94CB1A0EF4E0950B2EBA2F44
S1133260A02D0B01B90190010C01CA01A001112488
S1133270FF27591B99F0593F50F4503E68F11A1634
S1133280F040A22F232F342F4427585FF3CF4695C5
S113329037952795A795F0405395C9F77EF41F16E7
S11332A0BA0B620B730B840BBAF09150A1F0FF0FB1
S11332B0BB1F661F771F881FC2F70EC0BA0F621F9D
S11332C0731F841F48F4879577956795B795F7958D
S11332D09E3F08F0B0CF9395880F08F09927EE0F22
S11332E09795879508950E945D1A08F481E00895E2
S11332F00E948C190C94981A0E94911A58F00E94FA
S11333008A1A40F029F45F3F29F00C94811A511174
S11333100C94CC1A0C94871A0E94A91A68F3992366
S1133320B1F3552391F3951B550BBB27AA276217BD
S11333307307840738F09F5F5F4F220F331F441FCA
S1133340AA1FA9F335D00E2E3AF0E0E832D09150FE
S11333505040E695001CCAF72BD0FE2F29D0660FEB
S1133360771F881FBB1F261737074807AB07B0E82E
S113337009F0BB0B802DBF01FF2793585F4F3AF034
S11333809E3F510578F00C94811A0C94CC1A5F3F3F
S1133390E4F3983ED4F3869577956795B795F795BA
S11333A09F5FC9F7880F911D9695879597F90895A2
S11333B0E1E0660F771F881FBB1F6217730784073E
S11333C0BA0720F0621B730B840BBA0BEE1F88F74D
S11333D0E09508950E94F1196894B1110C94CC1AE7
S11333E008950E94B11A88F09F5798F0B92F992731
S11333F0B751B0F0E1F0660F771F881F991F1AF0DC
S1133400BA95C9F714C0B13091F00E94CB1AB1E05B
S113341008950C94CB1A672F782F8827B85F39F05A
S1133420B93FCCF3869577956795B395D9F73EF474
S113343090958095709561957F4F8F4F9F4F08951C
S1133440E89409C097FB3EF490958095709561953A
S11334507F4F8F4F9F4F9923A9F0F92F96E9BB27F0
S11334609395F695879577956795B795F111F8CF6C
S1133470FAF4BB0F11F460FF1BC06F5F7F4F8F4FD7
S11334809F4F16C0882311F096E911C0772321F0CD
S11334909EE8872F762F05C0662371F096E8862F65
S11334A070E060E02AF09A95660F771F881FDAF7BC
S11334B0880F9695879597F90895990F0008550FE9
S11334C0AA0BE0E8FEEF16161706E807F907C0F0A6
S11334D012161306E407F50798F0621B730B840BAE
S11334E0950B39F40A2661F0232B242B252B21F488
S11334F008950A2609F4A140A6958FEF811D811D28
S1133500089597F99F6780E870E060E008959FEF61
S113351080EC089500240A94161617061806090666
S1133520089500240A941216130614060506089535
S1133530092E0394000C11F4882352F0BB0F40F4BD
S1133540BF2B11F460FF04C06F5F7F4F8F4F9F4FFD
S1133550089557FD9058440F551F59F05F3F71F07F
S11335604795880F97FB991F61F09F3F79F08795E6
S11335700895121613061406551FF2CF4695F1DF6F
S113358008C0161617061806991FF1CF86957105FF
S1133590610508940895E894BB2766277727CB0133
S11335A097F908950E945D1A08F48FEF08950E9418
S11335B0EA1A0C94981A0E948A1A38F00E94911AF6
S11335C020F0952311F00C94811A0C94871A11247D
S11335D00C94CC1A0E94A91A70F3959FC1F3950F0D
S11335E050E0551F629FF001729FBB27F00DB11D83
S11335F0639FAA27F00DB11DAA1F649F6627B00D13
S1133600A11D661F829F2227B00DA11D621F739FFB
S1133610B00DA11D621F839FA00D611D221F749F09
S11336203327A00D611D231F849F600D211D822F50
S1133630762F6A2F11249F5750409AF0F1F0882377
S11336404AF0EE0FFF1FBB1F661F771F881F9150A4
S11336505040A9F79E3F510580F00C94811A0C94B8
S1133660CC1A5F3FE4F3983ED4F38695779567953B
S1133670B795F795E7959F5FC1F7FE2B880F911DCE
S11336809695879597F90895FA01EE0FFF1F3096E6
S113369021053105A1F16115710561F48038BFE39D
S11336A09B0749F168949038810561F08038BFEF39
S11336B09B0741F099234AF5FF3FE10531052105B8
S11336C019F1E8940894E795D901AA2329F4AB2FBA
S11336D0BE2FF85FD0F310C0FF5F70F4A695E0F73B
S11336E0F73950F019F0FF3A38F49F779F930DD0D3
S11336F00F9007FC9058089546F00C94871A60E0E8
S113370070E080E89FE308954FE79F775F934F93BE
S11337103F932F930E943F1C2F913F914F915F91B4
S11337200E94D71A0C949C1B29F416F00C94811A4D
S11337300C94CB1A0C94871A0E94B11AA8F39638E9
S1133740A0F707F80F92E8942BE33AEA48EB5FE717
S11337500E94ED1A0F920F920F924DB75EB70F921F
S11337600E94871CE8EEF0E00E94CE1B4F915F910F
S1133770EF91FF91E595EE1FFF1F49F0FE57E068BA
S11337804427EE0F441FFA95E1F74195550B0E942B
S1133790011C0F9007FE0C94F51B0895DF93CF9343
S11337A01F930F93FF92EF92DF927B018C01689439
S11337B006C0DA2EEF010E94EA1AFE01E894A591F0
S11337C02591359145915591A6F3EF010E941E195B
S11337D0FE019701A801DA9469F7DF90EF90FF905A
S11337E00F911F91CF91DF9108959B01AC0160E08F
S11337F070E080E89FE30C9478190C94811A0C947F
S1133800BB1C0E94B11AD8F39923C9F3940F511D1C
S1133810A3F39150504094F059F0882332F0660F8E
S1133820771F881F91505040C1F79E3F51052CF7D8
S1133830880F911D9695879597F908955F3FACF091
S1133840983E9CF0BB27869577956795B79508F4C5
S1133850B1609395C1F7BB0F58F711F460FFE8CF3F
S11338606F5F7F4F8F4F9F4FE3CF0C94CC1A16F0AE
S11338700C94BB1C0C94871A68940C94811A0E94B3
S1133880B11AA8F39923C1F3AEF3DF93CF931F9337
S11338900F93FF92C92FDD2788232AF02197660F03
S11338A0771F881FDAF720E030E040E85FEB9FE302
S11338B0883920F0803E38F021968F770E940719CE
S11338C0E0E1F1E004C00E940719EDE3F1E00E9499
S11338D0CE1B8B01BE01EC01FB2E6F577109759550
S11338E0771F880B990B0E94221A28E132E741E3E3
S11338F05FE30E94EA1AAF2D9801AE01FF900F9189
S11339001F91CF91DF910E941E190C94981AFA010D
S1133910DC01AA0FBB1F9B01AC01BF5728F422276F
S113392033274427507820C0B75190F4AB2F00249C
S1133930469537952795011CA395D2F3002071F085
S1133940220F331F441FB395DAF30ED00C940619DB
S113395061307105A0E88A07B94630F49B01AC01D7
S11339606627772788279078309621F02083318343
S11339704283538308959F3F31F0915020F48795FB
S113398077956795B795880F911D9695879597F9C3
S1133990089597FB072E16F4009407D077FD09D0FD
S11339A00E940B1D07FC05D03EF4909581959F4F16
S11339B00895709561957F4F0895052E97FB1EF429
S11339C000940E94F41C57FD07D00E941F1D07FCA1
S11339D003D04EF40C94F41C5095409530952195E9
S11339E03F4F4F4F5F4F0895909580957095619527
S11339F07F4F8F4F9F4F0895A29FB001B39FC00187
S1133A00A39F700D811D1124911DB29F700D811D06
S1133A101124911D0895AA1BBB1B51E107C0AA1FC5
S1133A20BB1FA617B70710F0A61BB70B881F991F5B
S1133A305A95A9F780959095BC01CD010895A1E20E
S1133A401A2EAA1BBB1BFD010DC0AA1FBB1FEE1F14
S1133A50FF1FA217B307E407F50720F0A21BB30B5F
S1133A60E40BF50B661F771F881F991F1A9469F7DB
S1133A7060957095809590959B01AC01BD01CF0137
S1093A800895F894FFCF45
S1133A86C01803E803DC05F50052494600574946C9
S1133A9600434C4B484F4C4400525841434B004161
S1133AA652424C4F535400425553455252004944D6
S1133AB64C45004F574E4552004255535900493222
S1133AC64320627573792E0074696D656F75740091
S1133AD60A2D2D2D2D3E204572726F7220696E209F
S1133AE673656E64696E6720616464722E0A0045AC
S1133AF672726F7220696E20646174612073656EE0
S1133B06742E004572726F7220696E20646174614E
S1133B162072656369657665642E007072657373D9
S1133B26757265206469676974206F766572666C60
S1093B366F77212100005D
S9030000FC
