S018000053756374696F6E50756D702870776D292E73726563E0
S11300000C94B5000C94D4000C94D4000C94D4003B
S11300100C94D4000C94D4000C94D4000C94D4000C
S11300200C94D4000C94D4000C94D4000C94D400FC
S11300300C94D4000C94D4000C94D4000C94D400EC
S11300400C94D4000C94D4000C94D4000C94D400DC
S11300500C94D4000C94D4000C94D4000C94D400CC
S11300600C94D4000C94D4000C94D4000C94D400BC
S11300700C94D4000C94D4000C94D4000C94D400AC
S11300800C94D4000C94D4000C94D4000C94D4009C
S11300900C94D4000C94D4000C94D4000C94D4008C
S11300A00C94D4000C94D4000C94D4000C94D4007C
S11300B00C94D4000C94D4000C94D4000C94D4006C
S11300C00C94D4000C94D4000C94D4000C94D4005C
S11300D00C94D4000C94D4000C94D4000C94D4004C
S11300E00C94D4000C94D40007634236B79BD8A771
S11300F01A39685618AEBAAB558C1D3CB7CC576349
S1130100BD6DEDFD753EF6177231BF000000803FF6
S113011008000000BE922449123EABAAAA2ABECD12
S1130120CCCC4C3E00000080BEABAAAAAA3E000084
S11301300000BF000000803F00000000000841787C
S1130140D3BB4387D1133D190E3CC3BD4282AD2BB3
S11301503E68EC8276BED98FE1A93E4C80EFFFBEAB
S113016001C4FF7F3F000000000011241FBECFEF39
S1130170CDBFDFE7DEBF10E4A0E0B0E4E0E2FFE0E3
S113018000E00BBF02C007900D92A639B107D9F762
S113019020E4A6E9B0E401C01D92A83CB207E1F74F
S11301A00E9431030C948E070C9400006150710975
S11301B020E030E00EC0DC01A20FB31F4C91FC0123
S11301C0E60FF71F50815C9340832F5F3F4F6150D0
S11301D07109261737077CF30895CF92DF92EF92C7
S11301E0FF920F931F93CF93DF938A016901C0E0BD
S11301F0D0E011C07801EC0EFD1E2AE030E040E0B2
S113020050E00E944D07605DF7016083622F732FF9
S1130210842F952F2196611571058105910551F75C
S113022006C0F801EC0FFD1F80E380832196CC15F6
S1130230DD05BCF3BE01C8010E94D600F801EC0F35
S1130240FD1F1082CE01DF91CF911F910F91FF907E
S1130250EF90DF90CF9008958F929F92AF92BF92CC
S1130260CF92DF92EF92FF920F931F93CF93DF937E
S11302706B017C018A01E9010E946E044B015C015F
S1130280072E000C880B990B0E94A6049B01AC015D
S1130290C701B6010E948A036B017C01B401992055
S11302A024F46627772768197909072E000C880B30
S11302B0990B20E030E0A8010E94ED005C0120973A
S11302C081F1F801E80FF91F8EE28083BE010D2E43
S11302D0000C880B990B0E94A6049B01AC0160E002
S11302E070E080E291E40E94C8059B01AC01C70163
S11302F0B6010E945B052FEFA21AB20A0E946E0497
S11303009B01772324F422273327261B370BA801CC
S11303104A0D5B1DB901330F880B990B9E010E9496
S1130320ED00DF91CF911F910F91FF90EF90DF903F
S1130330CF90BF90AF909F908F900895E0E4F4E049
S113034020812D7F2083208121602083BC0180E0D7
S113035090E00E94A40420E030E040E851E40E94D0
S11303605B059B01AC0160E07BE187EB9EE40E94AE
S1130370FC0320E030E040E05FE30E948B030E9436
S11303807504E0E2F8E0608771878681806C86837B
S113039008959091240895FFFCCF80932208089536
S11303A00F931F93CF93DF938C01C0E0D0E007C07D
S11303B0F801EC0FFD1F80810E94C9012196F8010C
S11303C001900020E9F73197E01BF10BCE17DF070E
S11303D078F38AE00E94C901DF91CF911F910F91B8
S11303E008959A0146E950E40E942C0186E990E4BC
S11303F00E94D0010895E0E0F9E081E0858383E084
S113040084830895E0E0F9E080818F7E8083808199
S1130410837F808380818D7F80830895E0E0F9E08D
S113042087E6868381E0858383818A6083838381F1
S1130430816083830895CF93DF93C82FD62F809153
S113044005098370833089F489E390E40E94D00124
S113045020E63AEE01C09C01809105098370833047
S113046021F4C9010197232BB1F785E08093050995
S1130470DD2341F08C2F90E0880F991F81608093D9
S1130480070904C08C2F880F8093070980E69AEE31
S11304902091050924FF06C02091050926FD02C00C
S11304A00197B1F7892B21F483E490E40E94D001F1
S11304B08091050982FF04C08BE490E40E94D0017E
S11304C0DF91CF910895CF93DF93C0E6DAEE809168
S11304D00509882314F02197D1F78091050983FD3C
S11304E004C08091050982FF06C08EE790E40E9453
S11304F0D0010E94FB01CD2B21F483E490E40E94FF
S1130500D00180910809DF91CF9108950E940202E1
S11305100E940E0261E088E70E941B020895CF92B8
S1130520DF92EF92FF92CF93DF930E9463028F7763
S1130530C82FD0E0DC2FCC270E946302C82B0E9476
S113054063020E946302BE0180E090E00E94A40462
S113055020E030ED4CE455E40E948A032BE734E1BB
S113056043E853E40E94FC0320E030E0A9010E9428
S11305708B036B017C0120E030E048EC52E40E94E4
S1130580560518161CF4C12CD12C760120E030E05D
S1130590A901C701B6010E94F70318161CF0C12C6B
S11305A0D12C7601C701B601DF91CF91FF90EF9076
S11305B0DF90CF90089582E88093A000E0E0F6E019
S11305C081E082838083089581E080930A06089500
S11305D0809308060E94E40280910D0680FFFCCF00
S11305E080911006909111060895A0E0B4E08C91DA
S11305F081608C9350968C915097886050968C9320
S11306005097E0E0FAE088EB9BE086A397A3809103
S113061002409091034080A791A710A211A281816A
S11306208061818381818360818380818160808313
S11306308081866080838C9182608C9351968C91AA
S11306405197886051968C938181806281838081E7
S113065082608083809100409091014082A793A79B
S1130660089595E288ED84BF909368000E94F50296
S11306700E94860280E895E20E949E010E94DB02AD
S1130680C12CD12C7601C8EC11C00E948F029B01B1
S1130690AC01C701B6010E948B036B017C018FE69C
S11306A097E10197F1F700C00000C150C111EDCFEF
S11306B020E030E048E453E4C701B6010E94FC03A3
S11306C02FE03CED4EE452E40E945B0542E050E032
S11306D00E94F10181E00E94E802BC01990F880B9D
S11306E0990B0E94A6042AEB3BE84BEB5EE30E94C5
S11306F05B0520E030E84BEB54E40E948B030E943E
S11307006E0460930240709303406093280A7093D0
S1130710290AB6CF5058BB27AA270E94A2030C94DB
S11307201C050E940E0538F00E94150520F039F4CE
S11307309F3F19F426F40C940B050EF4E095E7FBA7
S11307400C940505E92F0E942D0558F3BA1762078A
S113075073078407950720F079F4A6F50C944F05E8
S11307600EF4E0950B2EBA2FA02D0B01B9019001C8
S11307700C01CA01A0011124FF27591B99F0593F0C
S113078050F4503E68F11A16F040A22F232F342F54
S11307904427585FF3CF469537952795A795F040A2
S11307A05395C9F77EF41F16BA0B620B730B840BB7
S11307B0BAF09150A1F0FF0FBB1F661F771F881F6F
S11307C0C2F70EC0BA0F621F731F841F48F48795C7
S11307D077956795B795F7959E3F08F0B0CF9395B9
S11307E0880F08F09927EE0F9795879508950E9432
S11307F0E10408F481E008950E9410040C941C059F
S11308000E94150558F00E940E0540F029F45F3F40
S113081029F00C94050551110C9450050C940B050A
S11308200E942D0568F39923B1F3552391F3951B89
S1130830550BBB27AA2762177307840738F09F5FFD
S11308405F4F220F331F441FAA1FA9F335D00E2E6A
S11308503AF0E0E832D091505040E695001CCAF7D7
S11308602BD0FE2F29D0660F771F881FBB1F26179A
S113087037074807AB07B0E809F0BB0B802DBF0171
S1130880FF2793585F4F3AF09E3F510578F00C9440
S113089005050C9450055F3FE4F3983ED4F3869528
S11308A077956795B795F7959F5FC9F7880F911D61
S11308B09695879597F90895E1E0660F771F881F4D
S11308C0BB1F621773078407BA0720F0621B730B00
S11308D0840BBA0BEE1F88F7E09508950E94750407
S11308E06894B1110C94500508950E94350588F060
S11308F09F5798F0B92F9927B751B0F0E1F0660FE0
S1130900771F881F991F1AF0BA95C9F714C0B13020
S113091091F00E944F05B1E008950C944F05672FA4
S1130920782F8827B85F39F0B93FCCF3869577954F
S11309306795B395D9F73EF4909580957095619538
S11309407F4F8F4F9F4F0895E89409C097FB3EF463
S113095090958095709561957F4F8F4F9F4F992308
S1130960A9F0F92F96E9BB279395F6958795779586
S11309706795B795F111F8CFFAF4BB0F11F460FF46
S11309801BC06F5F7F4F8F4F9F4F16C0882311F09E
S113099096E911C0772321F09EE8872F762F05C0B2
S11309A0662371F096E8862F70E060E02AF09A954D
S11309B0660F771F881FDAF7880F9695879597F942
S11309C00895990F0008550FAA0BE0E8FEEF1616DC
S11309D01706E807F907C0F012161306E407F5072F
S11309E098F0621B730B840B950B39F40A2661F0A3
S11309F0232B242B252B21F408950A2609F4A14046
S1130A00A6958FEF811D811D089597F99F6780E852
S1130A1070E060E008959FEF80EC089500240A944C
S1130A201616170618060906089500240A941216C5
S1130A301306140605060895092E0394000C11F4F8
S1130A40882352F0BB0F40F4BF2B11F460FF04C0A5
S1130A506F5F7F4F8F4F9F4F089557FD9058440FFE
S1130A60551F59F05F3F71F04795880F97FB991F09
S1130A7061F09F3F79F087950895121613061406C6
S1130A80551FF2CF4695F1DF08C016161706180653
S1130A90991FF1CF86957105610508940895E8942E
S1130AA0BB2766277727CB0197F908950E94E104B5
S1130AB008F48FEF08950E946E050C941C050E94A3
S1130AC00E0538F00E94150520F0952311F00C94C2
S1130AD005050C940B0511240C9450050E942D055A
S1130AE070F3959FC1F3950F50E0551F629FF0017D
S1130AF0729FBB27F00DB11D639FAA27F00DB11D96
S1130B00AA1F649F6627B00DA11D661F829F22271E
S1130B10B00DA11D621F739FB00DA11D621F839FA5
S1130B20A00D611D221F749F3327A00D611D231F7B
S1130B30849F600D211D822F762F6A2F11249F57C9
S1130B4050409AF0F1F088234AF0EE0FFF1FBB1FCC
S1130B50661F771F881F91505040A9F79E3F51058B
S1130B6080F00C9405050C9450055F3FE4F3983E27
S1130B70D4F3869577956795B795F795E7959F5F35
S1130B80C1F7FE2B880F911D9695879597F90895C7
S1130B90FA01EE0FFF1F309621053105A1F1611511
S1130BA0710561F48038BFE39B0749F1689490387C
S1130BB0810561F08038BFEF9B0741F099234AF526
S1130BC0FF3FE1053105210519F1E8940894E79503
S1130BD0D901AA2329F4AB2FBE2FF85FD0F310C09C
S1130BE0FF5F70F4A695E0F7F73950F019F0FF3A7B
S1130BF038F49F779F930DD00F9007FC9058089579
S1130C0046F00C940B0560E070E080E89FE30895E3
S1130C104FE79F775F934F933F932F930E94C306B1
S1130C202F913F914F915F910E945B050C94200698
S1130C3029F416F00C9405050C944F050C940B053F
S1130C400E943505A8F39638A0F707F80F92E894A8
S1130C502BE33AEA48EB5FE70E9471050F920F928B
S1130C600F924DB75EB70F920E940B07E8EEF0E0CB
S1130C700E9452064F915F91EF91FF91E595EE1F0F
S1130C80FF1F49F0FE57E0684427EE0F441FFA9512
S1130C90E1F74195550B0E9485060F9007FE0C94D1
S1130CA079060895DF93CF931F930F93FF92EF92EA
S1130CB0DF927B018C01689406C0DA2EEF010E945A
S1130CC06E05FE01E894A5912591359145915591C4
S1130CD0A6F3EF010E94A203FE019701A801DA9492
S1130CE069F7DF90EF90FF900F911F91CF91DF9103
S1130CF008959B01AC0160E070E080E89FE30C94F0
S1130D00FC030C9405050C943F070E943505D8F3A9
S1130D109923C9F3940F511DA3F39150504094F0BB
S1130D2059F0882332F0660F771F881F9150504086
S1130D30C1F79E3F51052CF7880F911D9695879515
S1130D4097F908955F3FACF0983E9CF0BB278695D9
S1130D5077956795B79508F4B1609395C1F7BB0F84
S1130D6058F711F460FFE8CF6F5F7F4F8F4F9F4FAD
S1130D70E3CF0C94500516F00C943F070C940B052C
S1130D8068940C9405050E943505A8F39923C1F3D2
S1130D90AEF3DF93CF931F930F93FF92C92FDD27F9
S1130DA088232AF02197660F771F881FDAF720E03F
S1130DB030E040E85FEB9FE3883920F0803E38F074
S1130DC021968F770E948B03E0E1F1E004C00E943A
S1130DD08B03EDE3F1E00E9452068B01BE01EC01AE
S1130DE0FB2E6F5771097595771F880B990B0E941D
S1130DF0A60428E132E741E35FE30E946E05AF2DCC
S1130E009801AE01FF900F911F91CF91DF910E9445
S1130E10A2030C941C05FA01DC01AA0FBB1F9B0161
S1130E20AC01BF5728F4222733274427507820C029
S1130E30B75190F4AB2F0024469537952795011CA4
S1130E40A395D2F3002071F0220F331F441FB395F2
S1130E50DAF30ED00C948A0361307105A0E88A0796
S1130E60B94630F49B01AC01662777278827907830
S1130E70309621F0208331834283538308959F3F2A
S1130E8031F0915020F4879577956795B795880F41
S1130E90911D9695879597F90895052E97FB1EF455
S1130EA000940E94640757FD07D00E946C0707FC5A
S1130EB003D04EF40C9464075095409530952195D9
S1130EC03F4F4F4F5F4F0895909580957095619572
S1130ED07F4F8F4F9F4F0895A1E21A2EAA1BBB1B71
S1130EE0FD010DC0AA1FBB1FEE1FFF1FA217B307F2
S1130EF0E407F50720F0A21BB30BE40BF50B661F08
S1130F00771F881F991F1A9469F7609570958095CB
S1130F1090959B01AC01BD01CF010895F894FFCFDA
S1130F20E803DC055249460057494600434C4B4808
S1130F304F4C4400525841434B004152424C4F5392
S1130F4054004255534552520049444C45004F57B2
S1130F504E4552004255535900493243206275733D
S1130F60792E0074696D656F7574000A2D2D2D2D11
S1130F703E204572726F7220696E2073656E6469DB
S1130F806E6720616464722E0A004572726F72206B
S1130F90696E20646174612073656E742E004572FD
S1130FA0726F7220696E2064617461207265636976
S1090FB0657665642E0065
S9030000FC
